:1000000037C0000050C000004EC0000066C00000B5
:100010004AC0000048C0000046C0000044C00000C4
:1000200042C0000040C000003EC000003CC00000D4
:100030003AC0000038C0000036C0000034C00000E4
:1000400032C0000030C000002EC000002FC10000F0
:100050002AC0000028C0000026C0000024C0000004
:1000600022C0000020C000001EC000001CC0000014
:1000700011241FBECFEFD4E0DEBFCDBF11E0A0E062
:10008000B1E0E8EFF6E002C005900D92A03CB107A8
:10009000D9F721E0A0ECB1E001C01D92AE3CB2075F
:1000A000E1F72BD127C3ACCF85B7806885BF3098E7
:1000B00080B7806280BF86B78E7F86BF8BB7806235
:1000C0008BBF78940895809300142899FECF81E027
:1000D0008093C3018091001408951F920F920FB670
:1000E0000F9211241092C3010F900FBE0F901F901A
:1000F000189593D040E664E680E676D040E060EE66
:100100008FE072D04FEF61E08BE26ED04FEF60E690
:1001100080E66AC008951F93CF93DF93EC0180E3DC
:100120003FD083FD25C086E091E096D288819981F9
:1001300096958795969587959695879561E33DD099
:10014000888162E38295880F807E37D065E38A815B
:1001500034D08A81882361F010E066E3610FFE01EC
:10016000E10FF11D838129D01F5F8A811817A8F341
:1001700081E832D0DF91CF911F910895CF9385E030
:10018000A2DFC1E89C2F981B9093C10184E09BDF04
:10019000C81BC093C001CF91089586DFEFCF0895AB
:1001A000CF93C82F62D083E056D08C2F54D057D035
:1001B000C82F5DD08C2FCF910895CF93DF93C82F98
:1001C000D62F53D082E047D08D2F45D08C2F43D0EF
:1001D0004ED0DF91CF910895CF93C82F46D08C2F6A
:1001E0003AD045D0CF9108951F93CF93DF93182F26
:1001F000D62FC42F3AD085E02ED0812F2CD08D2F32
:100200002AD08C2F28D033D0DF91CF911F91089521
:100210002CD080EC20D02BC0089513D0F9DF89EFCB
:1002200090E00197F1F700C000008EE0B9DF807E1A
:10023000803829F08DE891E00FD281E0089580E0C8
:100240000895BF9ABD9ABC9ABE986D986C9A6E9AA2
:10025000689A699808958FB9779BFECF089581E0D9
:10026000FADF779BFECF8FB10895C4980895C49AA2
:10027000089585B7806885BF80B7806280BF089584
:1002800090BD89B988E18AB95998F894579A5F9ACC
:10029000789481E090E008955D9BFECF8CB983E077
:1002A00090E008955F9BFECF8CB108951F920F924E
:1002B0000FB60F9211242F933F934F935F936F9339
:1002C0007F938F939F93AF93BF93EF93FF9381E0BF
:1002D0008093C2018CB1E0DFFF91EF91BF91AF91AC
:1002E0009F918F917F916F915F914F913F912F914E
:1002F0000F900FBE0F901F901895CF93DF93CDB73F
:10030000DEB72B970FB6F894DEBF0FBECDBF8FEFD1
:100310009FE20197F1F700C000008FEF8ABB8FE1E9
:1003200090E0AEDF62E571E08CE491E04BD1A1DFBB
:10033000E0DE33DF9FEF2FE781E0915020408040E7
:10034000E1F700C000C0D5DE82E08B8386EA90E052
:100350009A83898388E48C8381E48D83CE0101961E
:10036000DADE9FEF2FE784E0915020408040E1F7F4
:1003700000C00000F3CFCF93DF938230910510F4DB
:1003800082E090E0E091C601F091C70120E030E00A
:10039000A0E0B0E0309739F140815181481759070A
:1003A000B8F04817590771F482819381109729F0AA
:1003B00013969C938E9312972CC09093C7018093B1
:1003C000C60127C02115310531F04217530718F037
:1003D000A901DB0101C0EF019A01BD01DF0102802B
:1003E000F381E02DD7CF21153105F9F0281B390B0A
:1003F0002430310580F48A819B816115710521F0DB
:10040000FB019383828304C09093C7018093C6014C
:10041000FE01329644C0FE01E20FF31F81939193D7
:1004200022503109398328833AC02091C401309188
:10043000C501232B41F42091020130910301309337
:10044000C5012093C40120910001309101012115C3
:10045000310541F42DB73EB740910401509105019B
:10046000241B350BE091C401F091C501E217F3079D
:10047000A0F42E1B3F0B2817390778F0AC014E5F14
:100480005F4F2417350748F04E0F5F1F5093C5018B
:100490004093C4018193919302C0E0E0F0E0CF016A
:1004A000DF91CF910895CF93DF93009709F487C030
:1004B000FC01329713821282C091C601D091C7010C
:1004C000209781F420813181280F391F8091C40148
:1004D0009091C5018217930779F5F093C501E093D8
:1004E000C4016DC0DE0120E030E0AE17BF0750F45C
:1004F00012964D915C9113979D014115510509F19B
:10050000DA01F3CFB383A28340815181840F951F19
:100510008A179B0771F48D919C911197840F951FF9
:1005200002969183808312968D919C911397938369
:1005300082832115310529F4F093C701E093C601A8
:100540003EC0D9011396FC93EE9312974D915D91A5
:10055000A40FB51FEA17FB0779F480819181840FFE
:10056000951F0296D90111969C938E938281938157
:1005700013969C938E931297E0E0F0E08A819B8122
:10058000009719F0FE01EC01F9CFCE010296288107
:100590003981820F931F2091C4013091C501281722
:1005A000390769F4309729F41092C7011092C601F7
:1005B00002C013821282D093C501C093C401DF919F
:1005C000CF9108950F931F93CF93DF93EC018B018D
:1005D000009731F46115710519F480E090E037C09F
:1005E0006EE070E081E090E064D0FC010097A9F338
:1005F00080E883830115110571F01387028781E874
:1006000083838091C8019091C901892B21F4F093D3
:10061000C901E093C8012097C9F0D187C0878381C1
:10062000826083838091CA019091CB01892B71F400
:10063000F093CB01E093CA018091CC019091CD0160
:10064000892B21F4F093CD01E093CC01CF01DF9110
:10065000CF911F910F9108950F931F93CF93DF9325
:10066000E091CA01F091CB01238121FF1BC0EC0175
:1006700000E010E089916091CA017091CB01DB012B
:100680001896ED91FC911997882331F00995892BE3
:1006900089F30FEF1FEFEECF8AE00995892B11F454
:1006A000C80102C08FEF9FEFDF91CF911F910F9193
:1006B00008950F931F93CF93DF93869F8001879FA9
:1006C000100D969F100D1124C80155DEEC01009706
:1006D00021F0A80160E070E006D0CE01DF91CF915B
:1006E0001F910F910895DC0101C06D93415050405E
:0806F000E0F70895F894FFCF34
:1006F8000000CE01200048656C6C6F004A656720D9
:1007080065722069206461746172656369657665E4
:100718002E200A4D43505F525842305349444820D6
:100728003D2025640A4D43505F5258423053494496
:100738004C203D2025640A0043414E494E54463A18
:10074800203078253032780A0043414E53544154C2
:100758003A203078253032780A004D4553534147C6
:10076800453A200A49443A2025640A4C656E677464
:10077800683A2025640A446174613A20004D435068
:100788003235313520696E204E4F5420696E206312
:100798006F6E66696775726174696F6E206D6F64DC
:1007A8006520616674657220726573657421000046
:00000001FF
