S00F00004279676765726E2E7372656347
S11300000C9438000C9455000C9455000C94570033
S11300100C9455000C9455000C9455000C94550008
S11300200C9455000C9455000C9455000C945500F8
S11300300C9455000C9455000C9455000C945500E8
S11300400C9455000C9455000C9455000C944302E8
S11300500C9455000C9455000C9455000C945500C8
S11300600C9455000C9455000C9455000C945500B8
S113007011241FBECFEFD4E0DEBFCDBF11E0A0E05E
S1130080B1E0E2E8FEE002C005900D92A037B107AE
S1130090D9F721E0A0E7B1E001C01D92AD37B20766
S11300A0E1F70E946B020C943F070C9400001F922E
S11300B00F920FB60F921124109272010F900FBE7F
S11300C00F901F9018950E949D0140E460EE8FE010
S11300D00E94810108951F93CF93DF93EC018881DF
S11300E0998196958795969587959695879561E3D9
S11300F00E945001888162E38295880F807E0E946D
S1130100500165E38A810E9450018A81882369F045
S113011010E066E3610FFE01E10FF11D83810E948F
S113012050011F5F8A811817A0F381E80E946401BF
S1130130DF91CF911F910895CF92DF92FF921F9389
S1130140CF93DF93CDB7DEB72B970FB6F894DEBF0E
S11301500FBECDBF6C01FE0131968BE0DF011D9215
S11301608A95E9F786E091E09F938F930E94250496
S113017088E80E943E01F82E81E00E943E018F290A
S113018090E09A83898385E30E943E018F708B837C
S11301900F900F90882381F010E086E3810F0E9476
S11301A03E01E4E0F0E0EC0FFD1FE10FF11D808360
S11301B01F5F8B81181788F38BE0FE013196D601FF
S11301C001900D928A95E1F7C6012B960FB6F8942B
S11301D0DEBF0FBECDBFDF91CF911F91FF90DF90A7
S11301E0CF900895EF92FF920F931F93CF93DF93D5
S11301F0CDB7DEB72B970FB6F894DEBF0FBECDBFD9
S1130200E982FA820B831C832D833E834F835887B4
S113021069877A878B871F920F938A818F9389814D
S11302208F938BE191E09F938F930E9425040F900D
S11302300F900F900F900F900F90002371F07E019C
S113024084E0E80EF11C10E0F70181917F0190E059
S11302500E9439041F5F1013F7CF8AE090E00E94D8
S113026039042B960FB6F894DEBF0FBECDBFDF91D5
S1130270CF911F910F91FF90EF900895CF93C82FC6
S11302800E94220283E00E9417028C2F0E94170210
S11302900E941B02C82F0E9424028C2FCF91089524
S11302A0CF93DF93C82FD62F0E94220282E00E94B0
S11302B017028D2F0E9417028C2F0E9417020E9492
S11302C02402DF91CF910895CF93C82F0E94220278
S11302D0C13041F018F0C23049F00CC081E80E94EE
S11302E017020BC082E80E94170207C084E80E942C
S11302F0170203C087E80E9417020E942402CF91CC
S11303000895CF93DF93D62FC42F0E94220285E055
S11303100E9417028D2F0E9417028C2F0E94170231
S11303200E942402DF91CF9108950E94220280EC62
S11303300E9417020E94240208950E940D020E9446
S1130340950189EF90E00197F1F700C000008EE07D
S11303500E943E018EE391E00E94400481E00895F2
S1130360E0E0F0E18EEA808381EA80838AED808395
S113037082E1808388EC808388EA80838FE38083B2
S113038085ED808380E8808381E8808380E58083B5
S113039089ED808381E2808380E2808382E08083B0
S11303A08BED808380E380838DEA8083108284EAEE
S11303B0808386EA80838FEA8083089590EB980F88
S11303C0E0E0F0E1908390E19083108280937001EB
S11303D0089580EBA0E0B0E120E1E0E0F2E191E0FB
S11303E0980F8C932C931C9280E010828F5F80383E
S11303F0E1F7983B11F0892FF2CF1092700180E061
S11304000E94DE010895982F92959F70905FE0E01E
S1130410F0E190838F7080830895BF9ABD9ABC9A4F
S1130420BE986D986C9A6E9A689A699808958FB977
S1130430779BFECF089581E00E941702779BFECF41
S11304408FB10895C4980895C49A089585B78068B3
S113045085BF80B7806280BF089590BD89B988E167
S11304608AB95998F894579A5F9A789481E090E001
S113047008955D9BFECF8CB983E090E008955F9B67
S1130480FECF8CB108951F920F920FB60F921124D4
S11304902F933F934F935F936F937F938F939F9388
S11304A0AF93BF93EF93FF9381E0809371018CB17D
S11304B00E943902FF91EF91BF91AF919F918F916B
S11304C07F916F915F914F913F912F910F900FBE4C
S11304D00F901F901895CF93DF93CDB7DEB7669733
S11304E00FB6F894DEBF0FBECDBF8FEF9FE201972A
S11304F0F1F700C000008FEF8ABB8FE190E00E940B
S11305002D026FE372E089E392E00E94DA030E9415
S113051026020E94B0010E94E90180E00E94DE01EF
S113052080E00E9403020E94630083E090E09D87C4
S11305308C8781E08E8788E48F87CE010C960E9499
S11305406B00CE0101960E949C00E980FA800B8129
S11305501C812D813E814F81588569857A858B85E3
S11305600E94F200FFCFCF93DF938230910510F405
S113057082E090E0E0917501F091760120E030E0B6
S1130580A0E0B0E0309739F1408151814817590714
S1130590B8F04817590771F482819381109729F0B4
S11305A013969C938E9312972CC09093760180930C
S11305B0750127C02115310531F04217530718F092
S11305C0A901DB0101C0EF019A01BD01DF01028035
S11305D0F381E02DD7CF21153105F9F0281B390B14
S11305E02430310580F48A819B816115710521F0E5
S11305F0FB019383828304C09093760180937501F9
S1130600FE01329644C0FE01E20FF31F81939193E1
S113061022503109398328833AC0209173013091E3
S11306207401232B41F42091020130910301309392
S1130630740120937301209100013091010121156F
S1130640310541F42DB73EB74091040150910501A5
S1130650241B350BE0917301F0917401E217F30749
S1130660A0F42E1B3F0B2817390778F0AC014E5F1E
S11306705F4F2417350748F04E0F5F1F50937401E6
S1130680409373018193919302C0E0E0F0E0CF01C5
S1130690DF91CF910895CF93DF93009709F487C03A
S11306A0FC01329713821282C0917501D0917601B8
S11306B0209781F420813181280F391F80917301A3
S11306C0909174018217930779F5F0937401E09384
S11306D073016DC0DE0120E030E0AE17BF0750F4B7
S11306E012964D915C9113979D014115510509F1A5
S11306F0DA01F3CFB383A28340815181840F951F24
S11307008A179B0771F48D919C911197840F951F03
S113071002969183808312968D919C911397938373
S113072082832115310529F4F0937601E093750154
S11307303EC0D9011396FC93EE9312974D915D91AF
S1130740A40FB51FEA17FB0779F480819181840F08
S1130750951F0296D90111969C938E938281938161
S113076013969C938E931297E0E0F0E08A819B812C
S1130770009719F0FE01EC01F9CFCE010296288111
S11307803981820F931F20917301309174012817CE
S1130790390769F4309729F41092760110927501A3
S11307A002C013821282D0937401C0937301DF914B
S11307B0CF9108950F931F93CF93DF93EC018B0197
S11307C0009731F46115710519F480E090E038C0A8
S11307D06EE070E081E090E00E943F06FC0100972B
S11307E0A1F380E883830115110571F01387028753
S11307F081E883838091770190917801892B21F49A
S1130800F0937801E09377012097C9F0D187C087EE
S11308108381826083838091790190917A01892B0D
S113082071F4F0937A01E093790180917B019091C6
S11308307C01892B21F4F0937C01E0937B01CF01AF
S1130840DF91CF911F910F910895A0E0B0E0EBE20A
S1130850F4E00C941807FE01359661917191AF0193
S11308608091790190917A010E946D04E2E00C94E8
S113087034076091790170917A010E947806089595
S11308800F931F93CF93DF93E0917901F0917A0155
S1130890238121FF1BC0EC0100E010E089916091ED
S11308A0790170917A01DB011896ED91FC91199709
S11308B0882331F00995892B89F30FEF1FEFEECFD1
S11308C08AE00995892B11F4C80102C08FEF9FEFCC
S11308D0DF91CF911F910F910895ACE0B0E0E3E771
S11308E0F4E00C9408077C016B018A01FC01178277
S11308F01682838181FFBDC1CE0101964C01F701AF
S11309009381F60193FD859193FF81916F01882373
S113091009F4ABC1853239F493FD859193FF81913C
S11309206F01853229F4B70190E00E947806E7CF81
S1130930512C312C20E02032A0F48B3269F030F4B9
S1130940803259F0833269F420612CC08D3239F041
S1130950803339F4216026C02260246023C02860DB
S113096021C027FD27C030ED380F3A3078F426FF38
S113097006C0FAE05F9E300D1124532E13C08AE0A6
S1130980389E300D1124332E20620CC08E3221F497
S113099026FD6BC1206406C08C3611F4206802C0A9
S11309A0883641F4F60193FD859193FF81916F019F
S11309B08111C1CF982F9F7D9554933028F40C5FFB
S11309C01F4FFFE3F9830DC0833631F0833771F095
S11309D0833509F05BC022C0F801808189830E5FF2
S11309E01F4F44244394512C540115C03801F2E0A4
S11309F06F0E711CF801A080B18026FF03C0652D25
S1130A0070E002C06FEF7FEFC5012C870E946D0676
S1130A102C0183012C852F77222E17C03801F2E098
S1130A206F0E711CF801A080B18026FF03C0652DF4
S1130A3070E002C06FEF7FEFC5012C870E945B0658
S1130A402C012C852068222E830123FC1BC0832DBE
S1130A5090E048165906B0F4B70180E290E00E9495
S1130A6078063A94F4CFF50127FC859127FE81910D
S1130A705F01B70190E00E94780631103A94F1E0EA
S1130A804F1A51084114510471F7E5C0843611F02E
S1130A90893639F5F80127FF07C0608171818281A9
S1130AA093810C5F1F4F08C060817181882777FD97
S1130AB08095982F0E5F1F4F2F76B22E97FF09C097
S1130AC090958095709561957F4F8F4F9F4F2068CB
S1130AD0B22E2AE030E0A4010E94AA06A82EA8188B
S1130AE044C0853729F42F7EB22E2AE030E025C099
S1130AF0F22FF97FBF2E8F36C1F018F4883579F0C4
S1130B00B4C0803719F0883721F0AFC02F2F20618F
S1130B10B22EB4FE0DC08B2D8460B82E09C024FF04
S1130B200AC09F2F9660B92E06C028E030E005C0A9
S1130B3020E130E002C020E132E0F801B7FE07C056
S1130B4060817181828193810C5F1F4F06C0608137
S1130B50718180E090E00E5F1F4FA4010E94AA06FD
S1130B60A82EA818FB2DFF77BF2EB6FE0BC02B2D89
S1130B702E7FA51450F4B4FE0AC0B2FC08C02B2D7D
S1130B802E7E05C07A2C2B2D03C07A2C01C0752C27
S1130B9024FF0DC0FE01EA0DF11D8081803311F4A4
S1130BA0297E09C022FF06C07394739404C0822F67
S1130BB0867809F0739423FD13C020FF06C05A2CD5
S1130BC0731418F4530C5718732C731468F4B70186
S1130BD080E290E02C870E94780673942C85F5CFF0
S1130BE0731410F4371801C0312C24FF12C0B7015C
S1130BF080E390E02C870E9478062C8522FF17C0A2
S1130C0021FF03C088E590E002C088E790E0B701C7
S1130C100CC0822F867859F021FD02C080E201C009
S1130C208BE227FD8DE2B70190E00E947806A514BF
S1130C3038F4B70180E390E00E9478065A94F7CF25
S1130C40AA94F401EA0DF11D8081B70190E00E949D
S1130C507806A110F5CF332009F451CEB70180E214
S1130C6090E00E9478063A94F6CFF7018681978146
S1130C7002C08FEF9FEF2C96E2E10C9424070F93B0
S1130C801F93CF93DF93869F8001879F100D969FBC
S1130C90100D1124C8010E94B302EC01009729F041
S1130CA0A80160E070E00E946606CE01DF91CF915A
S1130CB01F910F910895FC0105906150704001103F
S1130CC0D8F7809590958E0F9F1F0895DC0101C081
S1130CD06D9341505040E0F70895FC01615070401D
S1130CE001900110D8F7809590958E0F9F1F08955D
S1130CF00F931F93CF93DF93182F092FEB018B8151
S1130D0081FD03C08FEF9FEF20C082FF10C04E8192
S1130D105F812C813D81421753077CF4E881F9817E
S1130D209F012F5F3F4F39832883108306C0E885D6
S1130D30F985812F0995892B29F72E813F812F5F12
S1130D403F4F3F832E83812F902FDF91CF911F91AF
S1130D500F910895FA01AA27283051F1203181F129
S1130D60E8946F936E7F6E5F7F4F8F4F9F4FAF4FAF
S1130D70B1E03ED0B4E03CD0670F781F891F9A1FC2
S1130D80A11D680F791F8A1F911DA11D6A0F711D76
S1130D90811D911DA11D20D009F468943F912AE082
S1130DA0269F11243019305D3193DEF6CF0108956A
S1130DB0462F4770405D4193B3E00FD0C9F7F6CF9B
S1130DC0462F4F70405D4A3318F0495D31FD405263
S1130DD0419302D0A9F7EACFB4E0A69597958795F9
S1130DE077956795BA95C9F70097610571050895D8
S1130DF09B01AC010A2E0694579547953795279584
S1130E00BA95C9F7620F731F841F951FA01D08951B
S1130E102F923F924F925F926F927F928F929F9206
S1130E20AF92BF92CF92DF92EF92FF920F931F93F4
S1130E30CF93DF93CDB7DEB7CA1BDB0B0FB6F894A5
S1130E40DEBF0FBECDBF09942A88398848885F84E5
S1130E506E847D848C849B84AA84B984C884DF8056
S1130E60EE80FD800C811B81AA81B981CE0FD11D3A
S1130E700FB6F894DEBF0FBECDBFED010895F89410
S1050E80FFCF9E
S1130E8200007D0120004A656720657220692064A4
S1130E9261746172656369657665004D45535341BA
S1130EA247453A200A49443A2025640A4C656E674C
S1130EB274683A2025640A446174613A20004D43FF
S1130EC2503235313520696E204E4F5420696E20E0
S1130ED2636F6E66696775726174696F6E206D6F98
S1130EE2646520616674657220726573657421009D
S9030000FC
