S00F00004279676765726E2E7372656347
S113000037C0000050C000004EC0000066C00000B1
S11300104AC0000048C0000046C0000044C00000C0
S113002042C0000040C000003EC000003CC00000D0
S11300303AC0000038C0000036C0000034C00000E0
S113004032C0000030C000002EC000002CC10000EF
S11300502AC0000028C0000026C0000024C0000000
S113006022C0000020C000001EC000001CC0000010
S113007011241FBECFEFD4E0DEBFCDBF11E0A0E05E
S1130080B1E0EEE6FCE002C005900D92A834B107A1
S1130090D9F721E0A8E4B1E001C01D92A635B2076A
S11300A0E1F728D1E2C5ACCF85B7806885BF309829
S11300B080B7806280BF86B78E7F86BF8BB7806231
S11300C08BBF78940895809300142899FECF81E023
S11300D080934B018091001408951F920F920FB6E4
S11300E00F92112410924B010F900FBE0F901F908E
S11300F0189590D040E664E680E673D040E060EE68
S11301008FE06FD04FEF61E08BE26BD04FEF60E692
S113011080E667C008951F93CF93DF93EC0180E3DB
S11301203CD083FD22C088819981969587959695C8
S113013087959695879561E33DD0888162E38295A2
S1130140880F807E37D065E38A8134D08A81882302
S113015061F010E066E3610FFE01E10FF11D8381A0
S113016029D01F5F8A811817A8F381E832D0DF9164
S1130170CF911F910895CF9385E0A5DFC1E89C2F0F
S1130180981B9093490184E09EDFC81BC0934801EB
S1130190CF91089589DFEFCF0895CF93C82F62D010
S11301A083E056D08C2F54D057D0C82F5DD08C2FDD
S11301B0CF910895CF93DF93C82FD62F53D082E0E9
S11301C047D08D2F45D08C2F43D04ED0DF91CF9187
S11301D00895CF93C82F46D08C2F3AD045D0CF91D5
S11301E008951F93CF93DF93182FD62FC42F3AD09F
S11301F085E02ED0812F2CD08D2F2AD08C2F28D083
S113020033D0DF91CF911F9108952CD080EC20D072
S11302102BC0089513D0F9DF89EF90E00197F1F72F
S113022000C000008EE0B9DF807E803829F086E0CF
S113023091E02DD281E0089580E00895BF9ABD9A9F
S1130240BC9ABE986D986C9A6E9A689A699808954B
S11302508FB9779BFECF089581E0FADF779BFECFBD
S11302608FB10895C4980895C49A089585B7806895
S113027085BF80B7806280BF089590BD89B988E149
S11302808AB95998F894579A5F9A789481E090E0E3
S113029008955D9BFECF8CB983E090E008955F9B49
S11302A0FECF8CB108951F920F920FB60F921124B6
S11302B02F933F934F935F936F937F938F939F936A
S11302C0AF93BF93EF93FF9381E080934A018CB186
S11302D0E0DFFF91EF91BF91AF919F918F917F915B
S11302E06F915F914F913F912F910F900FBE0F909F
S11302F01F9018958FEF9FE20197F1F700C000005F
S11303008FEF8ABB8FE190E0B8DF6FE471E089E49E
S113031091E062D1ABDFEDDE3DDF9FEF2FE781E0BF
S1130320915020408040E1F700C000C00F2EF4E659
S1130330EF2EF12CF02D6894CC24C1F808E311E0E1
S1130340C0E0D0E0F982E882CA8285E0BCDED82E23
S11303508B8384E0B8DE8C831F928F931F92DF928D
S11303601F930F9383D1CE01D6DE9FEF2FE784E056
S1130370915020408040E1F700C000000F900F90A2
S11303800F900F900F900F90DBCFCF93DF938230BD
S1130390910510F482E090E0E0914E01F0914F015C
S11303A020E030E0A0E0B0E0309739F140815181A5
S11303B048175907B8F04817590771F48281938197
S11303C0109729F013969C938E9312972CC09093B8
S11303D04F0180934E0127C02115310531F042179A
S11303E0530718F0A901DB0101C0EF019A01BD0117
S11303F0DF010280F381E02DD7CF21153105F9F01B
S1130400281B390B2430310580F48A819B816115C6
S1130410710521F0FB019383828304C090934F0103
S113042080934E01FE01329644C0FE01E20FF31F99
S11304308193919322503109398328833AC02091C2
S11304404C0130914D01232B41F420910201309154
S1130450030130934D0120934C0120910001309110
S113046001012115310541F42DB73EB74091040136
S113047050910501241B350BE0914C01F0914D0185
S1130480E217F307A0F42E1B3F0B2817390778F067
S1130490AC014E5F5F4F2417350748F04E0F5F1FC6
S11304A050934D0140934C018193919302C0E0E03D
S11304B0F0E0CF01DF91CF910895CF93DF930097C0
S11304C009F487C0FC01329713821282C0914E0155
S11304D0D0914F01209781F420813181280F391F59
S11304E080914C0190914D018217930779F5F09317
S11304F04D01E0934C016DC0DE0120E030E0AE1709
S1130500BF0750F412964D915C9113979D014115CC
S1130510510509F1DA01F3CFB383A28340815181FC
S1130520840F951F8A179B0771F48D919C911197E5
S1130530840F951F02969183808312968D919C91CE
S11305401397938382832115310529F4F0934F0186
S1130550E0934E013EC0D9011396FC93EE9312979B
S11305604D915D91A40FB51FEA17FB0779F48081C3
S11305709181840F951F0296D90111969C938E93B5
S11305808281938113969C938E931297E0E0F0E01E
S11305908A819B81009719F0FE01EC01F9CFCE010D
S11305A0029628813981820F931F20914C0130914A
S11305B04D012817390769F4309729F410924F0137
S11305C010924E0102C013821282D0934D01C09347
S11305D04C01DF91CF9108950F931F93CF93DF9335
S11305E0EC018B01009731F46115710519F480E079
S11305F090E037C06EE070E081E090E038D2FC011A
S11306000097A9F380E883830115110571F013871E
S1130610028781E883838091500190915101892B55
S113062021F4F0935101E09350012097C9F0D18750
S1130630C0878381826083838091520190915301AA
S1130640892B71F4F0935301E0935201809154018A
S113065090915501892B21F4F0935501E0935401B5
S1130660CF01DF91CF911F910F910895A0E0B0E0E9
S1130670EBE3F3E0D3C2FE01359661917191AF01D2
S113068080915201909153012FD0E2E0E3C20F9385
S11306901F93CF93DF93E0915201F0915301238193
S11306A021FF1BC0EC0100E010E089916091520130
S11306B070915301DB011896ED91FC9119978823F1
S11306C031F00995892B89F30FEF1FEFEECF8AE004
S11306D00995892B11F4C80102C08FEF9FEFDF91B8
S11306E0CF911F910F910895ACE0B0E0E9E7F3E0FA
S11306F085C27C016B018A01FC0117821682838109
S113070081FFB0C1CE0101964C01F7019381F6013E
S113071093FD859193FF81916F01882309F49EC114
S1130720853239F493FD859193FF81916F01853270
S113073021F4B70190E0D2D1E8CF512C312C20E044
S11307402032A0F48B3269F030F4803259F08332D5
S113075069F420612CC08D3239F0803339F4216082
S113076026C02260246023C0286021C027FD27C042
S113077030ED380F3A3078F426FF06C0FAE05F9E79
S1130780300D1124532E13C08AE0389E300D1124ED
S1130790332E20620CC08E3221F426FD5FC120640A
S11307A006C08C3611F4206802C0883641F4F60184
S11307B093FD859193FF81916F018111C1CF982F92
S11307C09F7D9554933028F40C5F1F4FFFE3F9830A
S11307D00DC0833631F0833771F0833509F057C08B
S11307E021C0F801808189830E5F1F4F4424439404
S11307F0512C540114C03801F2E06F0E711CF80141
S1130800A080B18026FF03C0652D70E002C06FEFA9
S11308107FEFC5012C8757D12C0183012C852F77BD
S1130820222E16C03801F2E06F0E711CF801A08070
S1130830B18026FF03C0652D70E002C06FEF7FEF2B
S1130840C5012C872ED12C012C852068222E8301F2
S113085023FC19C0832D90E048165906A0F4B70173
S113086080E290E03BD13A94F5CFF50127FC8591E5
S113087027FE81915F01B70190E030D131103A94A5
S1130880F1E04F1A51084114510479F7DEC084365F
S113089011F0893631F5F80127FF07C060817181B5
S11308A0828193810C5F1F4F08C06081718188270A
S11308B077FD8095982F0E5F1F4F2F76B22E97FFEE
S11308C009C090958095709561957F4F8F4F9F4F8C
S11308D02068B22E2AE030E0A40132D1A82EA81854
S11308E043C0853729F42F7EB22E2AE030E025C09C
S11308F0F22FF97FBF2E8F36C1F018F4883579F0C6
S1130900ADC0803719F0883721F0A8C02F2F20619F
S1130910B22EB4FE0DC08B2D8460B82E09C024FF06
S11309200AC09F2F9660B92E06C028E030E005C0AB
S113093020E130E002C020E132E0F801B7FE07C058
S113094060817181828193810C5F1F4F06C0608139
S1130950718180E090E00E5F1F4FA401F1D0A82EBA
S1130960A818FB2DFF77BF2EB6FE0BC02B2D2E7FB4
S1130970A51450F4B4FE0AC0B2FC08C02B2D2E7E80
S113098005C07A2C2B2D03C07A2C01C0752C24FFB2
S11309900DC0FE01EA0DF11D8081803311F4297E22
S11309A009C022FF06C07394739404C0822F867812
S11309B009F0739423FD12C020FF06C05A2C73144F
S11309C018F4530C5718732C731460F4B70180E2B5
S11309D090E02C8783D073942C85F6CF731410F495
S11309E0371801C0312C24FF11C0B70180E390E017
S11309F02C8774D02C8522FF16C021FF03C088E504
S1130A0090E002C088E790E0B7010CC0822F86789E
S1130A1051F021FD02C080E201C08BE227FD8DE28E
S1130A20B70190E05BD0A51430F4B70180E390E007
S1130A3055D05A94F8CFAA94F401EA0DF11D80819F
S1130A40B70190E04BD0A110F6CF332009F45DCE6E
S1130A50B70180E290E042D03A94F7CFF701868163
S1130A60978102C08FEF9FEF2C96E2E1E3C00F93D2
S1130A701F93CF93DF93869F8001879F100D969FCE
S1130A80100D1124C80181DCEC01009721F0A801AC
S1130A9060E070E011D0CE01DF91CF911F910F91F2
S1130AA00895FC010590615070400110D8F78095BD
S1130AB090958E0F9F1F0895DC0101C06D934150E6
S1130AC05040E0F70895FC0161507040019001101E
S1130AD0D8F7809590958E0F9F1F08950F931F93BD
S1130AE0CF93DF93182F092FEB018B8181FD03C076
S1130AF08FEF9FEF20C082FF10C04E815F812C8159
S1130B003D81421753077CF4E881F9819F012F5FEF
S1130B103F4F39832883108306C0E885F985812FE8
S1130B200995892B29F72E813F812F5F3F4F3F8302
S1130B302E83812F902FDF91CF911F910F910895D4
S1130B40FA01AA27283051F1203181F1E8946F93FA
S1130B506E7F6E5F7F4F8F4F9F4FAF4FB1E03ED0A0
S1130B60B4E03CD0670F781F891F9A1FA11D680F3E
S1130B70791F8A1F911DA11D6A0F711D811D911D71
S1130B80A11D20D009F468943F912AE0269F1124E6
S1130B903019305D3193DEF6CF010895462F47704A
S1130BA0405D4193B3E00FD0C9F7F6CF462F4F70A5
S1130BB0405D4A3318F0495D31FD4052419302D003
S1130BC0A9F7EACFB4E0A6959795879577956795A9
S1130BD0BA95C9F700976105710508959B01AC01A9
S1130BE00A2E06945795479537952795BA95C9F7D0
S1130BF0620F731F841F951FA01D08952F923F92AB
S1130C004F925F926F927F928F929F92AF92BF9218
S1130C10CF92DF92EF92FF920F931F93CF93DF93C4
S1130C20CDB7DEB7CA1BDB0B0FB6F894DEBF0FBE21
S1130C30CDBF09942A88398848885F846E847D846E
S1130C408C849B84AA84B984C884DF80EE80FD8070
S1130C500C811B81AA81B981CE0FD11D0FB6F894E6
S1110C60DEBF0FBECDBFED010895F894FFCFA7
S1130C6E0000560120004D43503235313520696E57
S1130C7E204E4F5420696E20636F6E6669677572DD
S1130C8E6174696F6E206D6F646520616674657240
S1130C9E207265736574210078203D2025642C2014
S10B0CAE79203D2025640A00B1
S9030000FC
