S00F00004279676765726E2E7372656347
S113000054C100006FC100006DC1000085C1000033
S113001069C1000067C1000065C1000063C1000040
S113002061C100005FC100005DC100005BC1000050
S113003059C100000C94020A55C1000053C10000CC
S113004051C100004FC100004DC100000C94540A7E
S113005049C1000047C1000045C1000043C1000080
S113006041C100003FC100003DC100003BC1000090
S113007008000000BE922449123EABAAAA2ABECDB3
S1130080CCCC4C3E00000080BEABAAAAAA3E000025
S11300900000BF000000803F00000000000841781D
S11300A0D3BB4387D1133D190E3CC3BD4282AD2B54
S11300B03E68EC8276BED98FE1A93E4C80EFFFBE4C
S11300C001C4FF7F3F0000000000000000000000AA
S11300D0005F00000007000700147F147F14242A27
S11300E07F2A1223130864623649552250000503FF
S11300F00000001C2241000041221C00082A1C2A86
S11301000808083E080800503000000808080808DD
S1130110006060000020100804023E5149453E0082
S1130120427F400042615149462141454B311814F8
S1130130127F1027454545393C4A49493001710928
S113014005033649494936064949291E0036360011
S1130150000056360000000814224114141414142C
S113016041221408000201510906324979413E7EB8
S11301701111117E7F494949363E414141227F4157
S113018041221C7F494949417F090901013E4141FE
S113019051327F0808087F00417F41002040413FE1
S11301A0017F081422417F404040407F0204027FC7
S11301B07F0408107F3E4141413E7F090909063E04
S11301C04151215E7F0919294646494949310101B6
S11301D07F01013F4040403F1F2040201F7F2018E7
S11301E0207F6314081463030478040361514945B0
S11301F04300007F4141020408102041417F000078
S11302000402010204404040404000010204002076
S1130210545454787F48444438384444442038443F
S113022044487F3854545418087E09010208145471
S1130230543C7F0804047800447D40002040443D41
S113024000007F10284400417F40007C041804789B
S11302507C0804047838444444387C141414080892
S11302601414187C7C080404084854545420043F93
S11302704440203C4040207C1C2040201C3C40301A
S1130280403C44281028440C5050503C4464544C86
S113029044000836410000007F0000004136080099
S11302A00C1224120C0C1224120C11241FBECFEFBA
S11302B0D4E0DEBFCDBF12E0A0E0B1E0E4EDF4E2B3
S11302C002C005900D92A434B107D9F722E0A4E44A
S11302D0B2E001C01D92AC36B207E1F70E947B0A7E
S11302E00C9468128DCE85B7806885BF309880B72E
S11302F0806280BF86B78E7F86BF8BB780628BBFDC
S113030078940895809300142899FECF81E0809317
S113031061028091001408951F920F920FB60F92FC
S11303201124109261020F900FBE0F901F90189528
S113033073D140E664E680E656D140E060EE8FE09B
S113034052D140E660E680E64EC108951F93CF93F4
S1130350DF93EC0180E314D183FD22C0888199816D
S113036096958795969587959695879561E315D18A
S1130370888162E38295880F807E0FD165E38A814C
S11303800CD18A81882361F010E066E3610FFE01DD
S1130390E10FF11D838101D11F5F8A811817A8F332
S11303A081E80AD1DF91CF911F9108951F93CF93D4
S11303B0DF93EC018CE2E4D080FF2FC080E090EF6B
S11303C00197F1F781E6DCD0182F82E6D9D0482FC7
S11303D0429546954770212F30E0C901880F991F37
S11303E0880F991F880F991F842B9983888385E62A
S11303F0C7D087708A83882361F010E086E6810F76
S1130400BFD0FE01E10FF11D83831F5F8A8118179E
S1130410A8F340E061E08CE2E6D0DF91CF911F9138
S11304200895FC01718360834283442359F0522F61
S1130430DC011396E22FF32F21912D932E2F251BF0
S11304402417D0F30895E199FECF90E09FBB8EBBB3
S11304506DBBE29AE19A0895E199FECF90E09FBBCB
S11304608EBBE09A8DB390E008953DDFB898B998BB
S1130470BA98C29A0895CF93DF9385E043DF682F3B
S113048070E080E090E00E94380B2CE033E949E40E
S11304905FE30E94620C0E94050BC0914502DD27B8
S11304A0C7FDD0956C0F7D1FEB01C456D10984E0C4
S11304B029DF682F70E080E090E00E94380B2CE088
S11304C033E949E45FE30E94620C0E94050B20912A
S11304D04402332727FD3095260F371FBE01C9017B
S11304E084569109DF91CF9108950F931F93CF9371
S11304F0DF93C1DF8B019C01FB01E901CB01B90151
S11305000E94EA0CCB01A801475E5F4F43335105BB
S113051028F4275E3F4F2333310520F11E161F06B2
S113052054F49B01992324F422273327261B370BE9
S113053022303105CCF4FF2354F49B01992324F495
S113054022273327261B370B223031057CF41C1657
S11305501D061CF4892B29F40BC0DD2314F4892B0C
S113056049F009C084E007C081E005C080E003C011
S113057082E001C083E0DF91CF911F910F91089534
S1130580CF93C82F34D783E028D78C2F26D729D7E9
S1130590C82F2FD78C2FCF910895CF93DF93C82FD7
S11305A0D62F25D782E019D78D2F17D78C2F15D7A3
S11305B020D7DF91CF910895CF93C82F18D7C1309A
S11305C039F018F0C23039F009C081E806D708C004
S11305D082E803D705C084E800D702C087E8FDD6C7
S11305E008D7CF9108951F93CF93DF93182FD62F59
S11305F0C42FFDD685E0F1D6812FEFD68D2FEDD611
S11306008C2FEBD6F6D6DF91CF911F910895EFD6BC
S113061080ECE3D6EEC60895D6D6F9DF8CEC94E0F0
S11306200197F1F700C000008EE0AADF807E8038D9
S113063021F08BE091E00C940D0F0895BB9AC398C0
S11306400895BB9AC39A08951F93CF93DF938AE0CA
S113065003DF809347028EE1FFDE8093480282E34A
S1130660FBDE8093490252D58DE391E0F1D581E020
S113067042D5C7E4D2E011E0899190E026D6B3D503
S11306801F5F812F38D51430B9F72FDF8111FDCFCB
S1130690DF91CF911F910895CF92DF92EF92FF9255
S11306A00F931F93CF93DF937C018B01EA01CC80DE
S11306B0D12CCC0CDD1C8D819E81C80ED91E84E208
S11306C090E00E94110DF60191838083EC81F0E0AB
S11306D0EE0FFF1F8D819E81E80FF91F0190F081BD
S11306E0E02DF182E082EC81F0E0EE0FFF1F8D81BE
S11306F09E81E80FF91F0190F081E02D1482EC81B6
S1130700F0E0EE0FFF1F8D819E81E80FF91F01902D
S1130710F081E02D13830283EC81F0E0EE0FFF1FE4
S11307208D819E81E80FF91F0190F081E02DD08723
S1130730C783EC81F0E0EE0FFF1F8D819E81E80FEF
S1130740F91F0081118184E290E00E94110DF801EB
S113075096838583EC81EF5FEC83F0E0E150F04811
S1130760EE0FFF1F8D819E81E80FF91F808191811B
S1130770DF91CF911F910F91FF90EF90DF90CF9079
S11307800895EF920F931F93CF93DF93CDB7DEB706
S113079029970FB6F894DEBF0FBECDBF09831A8325
S11307A02B833C834D835E836F8378878987E885B9
S11307B0F985309759F0E12C008111812281338130
S11307C0448155816681778180850CD029960FB646
S11307D0F894DEBF0FBECDBFDF91CF911F910F9173
S11307E0EF900895BF92CF92DF92EF92FF920F9312
S11307F01F93CF93DF93CDB7DEB729970FB6F89445
S1130800DEBF0FBECDBF09831A832B833C83F42E36
S11308104D835E836F83788789870E811F818B81E7
S11308209C81892B99F0E885F98589E0ABE4B2E0F5
S113083001900D928A95E1F709811A812B813C81FF
S11308405E816F81788589859CDF26C05FD489812C
S11308509A81FED481E04FD4FF20F1F0CE2CD12C2C
S1130860CC0CDD1CC00ED11EB12CBE1007C0D601AD
S1130870ED91FC918081918168D506C0D801ED91FC
S1130880FC9180819181AFD482E08B0D34D4B394F8
S11308900E5F1F4FBF10E9CF29960FB6F894DEBF45
S11308A00FBECDBFDF91CF911F910F91FF90EF90BD
S11308B0DF90CF90BF900895EF920F931F93CF9343
S11308C0DF93CDB7DEB729970FB6F894DEBF0FBE1E
S11308D0CDBF09831A832B833C834D835E836F834F
S11308E0788789870B811C812FEF8FE797E0215050
S11308F080409040E1F700C000000115110591F41B
S1130900EE81FF8180819181892B79F0E12C09812D
S11309101A812B813C814D815E816F817885898527
S113092061DF03C0F3D3F801099529960FB6F89453
S1130930DEBF0FBECDBFDF91CF911F910F91EF901E
S11309400895BF92CF92DF92EF92FF920F931F937D
S1130950CF93DF938CE491E00E940D0F8AE591E040
S113096077D487E0C8D384E691E03DD482E0C3D352
S113097082E3E5D38DE2E0E0F2E190EC90838150F4
S1130980E9F786E0B8D382E3DAD38DE2E0E0F2E17E
S113099093E090838150E9F713E0C0E0D2E10FEFD8
S11309A0812FA9D382E3CBD3088308831F5F16303A
S11309B0B9F783E0A0D38FE5C2D3C0E0D2E113E05E
S11309C0188306E008830F2EFCE0FF2EF02DF8823A
S11309D00F2EF8E1EF2EF02DE8820F2EF0E3DF2E3C
S11309E0F02DD8820F2EF0E6CF2EF02DC8820F2ED8
S11309F0F0ECBF2EF02DB88280E8888384E07BD3AE
S1130A0086E69DD381E8888383EC888386E68883A1
S1130A108CE3888385E06FD38FE591D3B882C88255
S1130A20D882E882F8820883188381E088835DDDB8
S1130A308130E9F00F2EF3E0CF2EF02D0FEF10E010
S1130A4054DDD82EEC2C8E2D56D30F2EF2E3FF2E30
S1130A50F02D0E94810EB801BDD78883FA94C9F79E
S1130A60E39426E0E212EFCF81E0D812E9CF9FEFC2
S1130A702FE787E0915020408040E1F700C000005C
S1130A80DF91CF911F910F91FF90EF90DF90CF9066
S1130A90BF9008951F93CF93DF93C82F8AE0DCDCC7
S1130AA0D82F8EE1D9DC182F82E3D6DCDC1728F4AA
S1130AB06C2F8AE0C8DC81E00FC01C1728F46C2F6F
S1130AC08EE1C1DC82E008C08C1728F46C2F82E32D
S1130AD0BADC83E001C080E0DF91CF911F910895DB
S1130AE0EF920F931F93CF93DF93BFD4C2D4D2DF7F
S1130AF0182FBFD4EC010AD383E791E074D383E0C9
S1130B00FAD28DE791E06FD384E0F5D2CE01992734
S1130B10DCD369D32FEF8FEF9AE4215080409040CB
S1130B20E1F700C00000112309F436C0EFD289E8D0
S1130B3091E059D382E0DFD28AE991E054D383E093
S1130B40DAD28DEA91E04FD384E0D5D281EC91E002
S1130B504AD385E0D0D2812F90E0B7D344D32FEF8E
S1130B608FEF98E6215080409040E1F700C00000EC
S1130B70E12C0091540210915502209156023091BB
S1130B805702409158025091590260915A02709153
S1130B905B0280915C0226DEDF91CF911F910F9161
S1130BA0EF9008958F929F92AF92BF92CF92DF926F
S1130BB0EF92FF920F931F93CF93DF93CDB7DEB7DE
S1130BC066970FB6F894DEBF0FBECDBF20E030E0CD
S1130BD047E064E670E0CE010C9623DC2BE0FC01D8
S1130BE0DE011C9601900D922A95E1F734D485E03C
S1130BF089DBF82E86E086DBE82E86B38170D82E5A
S1130C00CC24C3940FEC11E0AA24A394B12C812C1E
S1130C10912C85E077DB4F2D50E0481B51099A0158
S1130C2022F422273327241B350B26303105FCF40C
S1130C3086E068DB2E2D30E0281B3109C901992399
S1130C4024F488279927821B930B049784F426B3F2
S1130C508A2D9B2D31E0D31202C0882D992D30E0CE
S1130C6082239323892B19F48A89813019F585E02D
S1130C7049DB8F8784E046DB888B86E043DB898B06
S1130C8086B381708A8B86B382708B8B86B38470B3
S1130C908C8BCE8A85E036DBF82E86E033DBE82EBB
S1130CA0DA88CE010C9652DB1F930F930E94FC0E40
S1130CB00F900F90CE01019679DB89819A818A3554
S1130CC0910509F0A6CF0CDF66960FB6F894DEBF47
S1130CD00FBECDBFDF91CF911F910F91FF90EF9089
S1130CE0DF90CF90BF90AF909F908F900895CF9357
S1130CF0DF93CDB7DEB766970FB6F894DEBF0FBEAD
S1130D00CDBFA9D320E030E047E064E670E0CE0137
S1130D10019687DB8091460281111BC021E030E0FF
S1130D2041E060E570E0CE010C967BDBCE010C96D1
S1130D300DDBCE0101963ADB89819A818A359105D2
S1130D4021F481E080934602CBDE80914602882321
S1130D5029F31092460266960FB6F894DEBF0FBED2
S1130D60CDBFDF91CF910895CF93DF9382EE91E0D1
S1130D709093550280935402109258021092570295
S1130D801092560210925C0210925B0284E290E090
S1130D9048D690935A028093590244E552E062ED9A
S1130DA075E08CEE91E078DC44E552E064E273E0B7
S1130DB086EF91E071DC44E552E060E070E081E0B0
S1130DC092E06ADCEC01AC016EE173E08AE092E04F
S1130DD063DCAE0161E273E086E192E05DDCAE01CA
S1130DE067E776E082E292E057DC89E0E4E5F2E04E
S1130DF0ABE4B2E001900D928A95E1F7DF91CF91D7
S1130E000895CF93DF93CDB7DEB729970FB6F89443
S1130E10DEBF0FBECDBFE12C0091540210915502EC
S1130E202091560230915702409158025091590234
S1130E3060915A0270915B0280915C02D3DC77244A
S1130E4073940F2EF9E0FF2EF02D6894442441F89A
S1130E500F2EFFE4CF2EF2E0DF2EF02D0F2EF3E065
S1130E605F2EF02D0F2EF0E38F2EF2E09F2EF02D4B
S1130E706894662462F80F2EF2E5AF2EF2E0BF2EDE
S1130E80F02D33243394F7DA30DB90914A02E92FC2
S1130E90F0E0EE0FFF1F2091500230915102E20F5B
S1130EA0F31F0190F081E02DDE0111962F2D0190AA
S1130EB00D922A95E1F7823071F038F4882309F411
S1130EC0ADC0813009F46CC0DECF833071F1843061
S1130ED009F4D5C0D8CF9923E1F080910A01843078
S1130EE0C1F4EE24EA94E90EE0924A0200914B0226
S1130EF010914C0220914D0230914E0240914F02CC
S1130F0050915002609151027091520280915302AB
S1130F1069DC40920A012FEF8FE791E02150804075
S1130F209040E1F700C000C0AECF492F50E0D60199
S1130F302C9130E021503109421753072CF5809150
S1130F400A01843009F59F5F90934A021F929F9390
S1130F509F928F9251D7E0904A0200914B021091D8
S1130F604C0220914D0230914E0240914F0250911B
S1130F70500260915102709152028091530232DC0E
S1130F800F900F900F900F9050920A01BFEFEFE770
S1130F90F1E0B150E040F040E1F700C000C073CF91
S1130FA021E0721681F180910A01843049F50981AA
S1130FB01A812B813C814D815E816F817885898581
S1130FC07BDCFE013196ABE4B2E08F2D01900D92F3
S1130FD08A95E1F710924A02E12C00914B0210919C
S1130FE04C0220914D0230914E0240914F0250919B
S1130FF05002609151027091520280915302F2DBCF
S113100030920A0101C0712C8FEF9FE7A1E081505B
S11310109040A040E1F700C000C035CF80910A01A4
S1131020843009F500914B0210914C0220914D023D
S113103030914E0240914F02509150026091510202
S113104070915202809153029CDBD501ED91FC9189
S1131050309739F0ABE4B2E08F2D01900D928A9570
S1131060E1F710924A0210920A01BFEFEFE7F1E0B4
S1131070B150E040F040E1F700C000C004CF6092FE
S11310800A012FEF8FE791E0215080409040E1F773
S113109000C000C0F8CEE0E0F0E18EEA808381EA8F
S11310A080838AED808382E1808388EC808388EA70
S11310B080838FE3808385ED808380E8808381E86B
S11310C0808380E5808389ED808381E2808380E270
S11310D0808382E080838BED808380E380838DEA4C
S11310E08083108284EA808386EA80838FEA808307
S11310F0B998BA98089590EB980FE0E0F0E19083E6
S113110090E19083108280935D02089580EBA0E0CB
S1131110B0E120E1E0E0F2E191E0980F8C932C93B0
S11311201C9280E010828F5F8038E1F7983B11F0C9
S1131130892FF2CF10925D0280E0DDCF0895982FC1
S113114092959F70905FE0E0F0E190838F708083D0
S11311500895E82FF0E0B097CF01880F991F880F0A
S1131160991FE80FF91FE653FF4F80E090E0A0E0DD
S1131170B2E124912C930196319685309105C9F7FB
S11311800895E82FF0E0E054F109CF01880F991F8A
S1131190880F991FE80FF91FE653FF4F80E090E096
S11311A0A0E0B2E124912C9301963196853091050B
S11311B0C9F70895E82FF0E0B097CF01880F991F81
S11311C0880F991FE80FF91FE653FF4F80E090E066
S11311D0A0E0B2E1249120952C93019631968530BC
S11311E09105C1F70895FF920F931F93CF93DF9357
S11311F0EC01FC0101900020E9F73197E81BF90BA1
S1131200CF01880F991F880F991FE80FF91FF695D2
S1131210E79580E48E1B93DF10E000E0F12C0CC016
S11312201F5F0F5F96DF193138F080915D028F5F89
S113123080935D0260DF1F2DFE01E00FF11D8081B0
S11312408111EECFDF91CF911F910F91FF900895FF
S1131250FF920F931F93CF93DF93EC01FC01019056
S11312600020E9F73197E81BF90BCF01880F991F8C
S1131270880F991FE80FF91FF695E79580E48E1BF8
S11312805EDF01E010E0F12C12C01F5F9FE9980FB0
S11312909A3110F476DF01C05CDF193138F08091A7
S11312A05D028F5F80935D0226DF1F2D0F5F8FEF3E
S11312B0800FFE01E80FF11D80818111E6CFDF91DF
S11312C0CF911F910F91FF900895CF92DF92EF92EB
S11312D0FF920F931F93CF93DF93CDB7DEB78C01AB
S11312E0EDB6FEB6009779F0BC01882777FD8095AE
S11312F0982FBED19CD220E030E040E85FE321D1BA
S1131300F2D183D102C061E070E06F5F7F4F8DB78F
S11313109EB7861B970B0FB6F8949EBF0FBE8DBF6A
S113132001966C014AE0BC01C801F9D4C6010FB6AC
S1131330F894FEBE0FBEEDBEDF91CF911F910F91C9
S1131340FF90EF90DF90CF900895FF920F931F933B
S1131350CF93DF93EC0180E0E0E0F2E19FEF908334
S11313608F5F8038E1F7FE0101900020E9F73197A3
S1131370EC1BFD0B9F01220F331F220F331FE20FC3
S1131380F31F9F013695279580E4821BD8DE10E079
S113139000E0F12C0CC01F5F0F5F0CDF193138F037
S11313A080915D028F5F80935D02A5DE1F2DFE019B
S11313B0E00FF11D80818111EECFDF91CF911F915C
S11313C00F91FF900895BF9ABD9ABC9ABE986D98EC
S11313D06C9A6E9A689A699808958FB9779BFECF34
S11313E0089581E0FADF779BFECF8FB10895C4980A
S11313F00895C49A089585B7806885BF80B78062D0
S113140080BF08951F920F920FB60F9211248F93ED
S11314109F9380915E0290915F02019690935F0288
S113142080935E028CEC94E00197F1F700C0000019
S11314309F918F910F900FBE0F901F9018958EB5AE
S113144088608EBD80EC92E19BBD8ABD789489B79B
S1131450806489BF089510925F0210925E021DBCE1
S11314601CBC8EB585608EBD089583B7887F83BF0D
S1131470089580915E0290915F02089590BD89B9AC
S113148088E18AB95998F894579A5F9A789481E0D8
S113149090E008955D9BFECF8CB983E090E00895C1
S11314A05F9BFECF8CB108951F920F920FB60F92DF
S11314B011242F933F934F935F936F937F938F9355
S11314C09F93AF93BF93EF93FF9381E08093600268
S11314D08CB1E0DFFF91EF91BF91AF919F918F911C
S11314E07F916F915F914F913F912F910F900FBE1C
S11314F00F901F9018958FEF8ABB8FE190E0BEDFAD
S113150060E57AE08AE49AE02DD475DF0E949801C0
S11315100E9435022FEF8FE791E0215080409040E8
S1131520E1F700C000C0B7DDF1DD80E0E4DD80E07C
S113153006DE07DA84DF18DC64DC80E090E00895DE
S11315405058BB27AA270ED021C112D130F017D191
S113155020F031F49F3F11F41EF407C10EF4E0951E
S1131560E7FBD4C0E92F23D180F3BA1762077307CE
S11315708407950718F071F49EF552C10EF4E095B6
S11315800B2EBA2FA02D0B01B90190010C01CA0139
S1131590A0011124FF27591B99F0593F50F4503EE4
S11315A068F11A16F040A22F232F342F4427585FD6
S11315B0F3CF469537952795A795F0405395C9F7EE
S11315C07EF41F16BA0B620B730B840BBAF09150A6
S11315D0A1F0FF0FBB1F661F771F881FC2F70EC045
S11315E0BA0F621F731F841F48F487957795679518
S11315F0B795F7959E3F08F0B3CF9395880F08F001
S11316009927EE0F97958795089504D06894B111A2
S113161008C10895D4D088F09F5790F0B92F992726
S1131620B751A0F0D1F0660F771F881F991F1AF0E9
S1131630BA95C9F712C0B13081F0F2D0B1E0089583
S1131640EFC0672F782F8827B85F39F0B93FCCF304
S1131650869577956795B395D9F73EF490958095DF
S1131660709561957F4F8F4F9F4F0895E89409C0FF
S113167097FB3EF490958095709561957F4F8F4FC1
S11316809F4F9923A9F0F92F96E9BB279395F695D7
S1131690879577956795B795F111F8CFFAF4BB0F55
S11316A011F460FF1BC06F5F7F4F8F4F9F4F16C0B9
S11316B0882311F096E911C0772321F09EE8872F43
S11316C0762F05C0662371F096E8862F70E060E0FF
S11316D02AF09A95660F771F881FDAF7880F969578
S11316E0879597F9089585D080F09F3740F491113C
S11316F00EF097C060E070E080E89FEB089526F458
S11317001B16611D711D811D07C021C097F99F67BC
S113171080E870E060E00895882371F4772321F075
S11317209850872B762F07C0662311F499270DC094
S11317309051862B70E060E02AF09A95660F771F2F
S1131740881FDAF7880F9695879597F908959F3F34
S113175031F0915020F4879577956795B795880F68
S1131760911D9695879597F908959FEF80EC0895BC
S113177000240A941616170618060906089500246C
S11317800A9412161306140605060895092E0394E6
S1131790000C11F4882352F0BB0F40F4BF2B11F45A
S11317A060FF04C06F5F7F4F8F4F9F4F089557FDB9
S11317B09058440F551F59F05F3F71F04795880FBB
S11317C097FB991F61F09F3F79F087950895121652
S11317D013061406551FF2CF4695F1DF08C01616FE
S11317E017061806991FF1CF8695710561050894AF
S11317F00895E5DFA0F0BEE7B91788F4BB279F384A
S113180060F41616B11D672F782F8827985FF7CFDD
S1131810869577956795B11D93959639C8F3089584
S1131820E894BB2766277727CB0197F908950AD058
S113183029ED3BE54EED5EE345C00EF088CF95CF34
S1131840689464CFBCDFC8F39923D1F3C6F3DF9364
S1131850CF931F930F93FF92C92FDD2788232AF07C
S11318602197660F771F881FDAF720E030E040E801
S11318705FEB9FE3883920F0803E30F021968F772C
S113188060DEE0E7F0E003C05CDEEDE9F0E07DD08F
S11318908B01BE01EC01FB2E6F5771097595771F03
S11318A0880B990BE5DE28E132E741E35FE316D0CC
S11318B0AF2D9801AE01FF900F911F91CF91DF9151
S11318C051DE64CF0BD062CF53DF28F058DF18F01D
S11318D0952309F01BCF49CF1124A3CF68DFA0F3D0
S11318E0959FD1F3950F50E0551F629FF001729FB1
S11318F0BB27F00DB11D639FAA27F00DB11DAA1FD0
S1131900649F6627B00DA11D661F829F2227B00D1C
S1131910A11D621F739FB00DA11D621F839FA00DA7
S1131920611D221F749F3327A00D611D231F849FF7
S1131930600D211D822F762F6A2F11249F5750404E
S11319408AF0E1F088234AF0EE0FFF1FBB1F661FE9
S1131950771F881F91505040A9F79E3F510570F0A2
S1131960D5CE5FCF5F3FECF3983EDCF38695779559
S11319706795B795F795E7959F5FC1F7FE2B880F9D
S1131980911D9695879597F90895DF93CF931F93AB
S11319900F93FF92EF92DF927B018C01689405C054
S11319A0DA2EEF019BDFFE01E894A5912591359194
S11319B045915591AEF3EF01D5DDFE019701A801E4
S11319C0DA9479F7DF90EF90FF900F911F91CF9108
S11319D0DF91089597FB072E16F4009406D077FD47
S11319E008D00BD007FC05D03EF4909581959F4F0D
S11319F00895709561957F4F0895AA1BBB1B51E113
S1131A0007C0AA1FBB1FA617B70710F0A61BB70B6A
S1131A10881F991F5A95A9F780959095BC01CD010F
S1131A200895CF93DF938230910510F482E090E023
S1131A30E0916402F091650220E030E0A0E0B0E0C3
S1131A40309739F14081518148175907B8F0481748
S1131A50590771F482819381109729F013969C930E
S1131A608E9312972CC0909365028093640227C0D2
S1131A702115310531F04217530718F0A901DB0194
S1131A8001C0EF019A01BD01DF010280F381E02D65
S1131A90D7CF21153105F9F0281B390B2430310536
S1131AA080F48A819B816115710521F0FB01938388
S1131AB0828304C09093650280936402FE0132968F
S1131AC044C0FE01E20FF31F819391932250310928
S1131AD0398328833AC02091620230916302232B18
S1131AE041F4209102013091030130936302209369
S1131AF0620220910001309101012115310541F468
S1131B002DB73EB74091040150910501241B350BBC
S1131B10E0916202F0916302E217F307A0F42E1B36
S1131B203F0B2817390778F0AC014E5F5F4F24173D
S1131B30350748F04E0F5F1F5093630240936202D3
S1131B408193919302C0E0E0F0E0CF01DF91CF9167
S1131B500895CF93DF93009709F487C0FC0132976F
S1131B6013821282C0916402D0916502209781F49D
S1131B7020813181280F391F809162029091630284
S1131B808217930779F5F0936302E09362026DC0C4
S1131B90DE0120E030E0AE17BF0750F412964D91FD
S1131BA05C9113979D014115510509F1DA01F3CFB9
S1131BB0B383A28340815181840F951F8A179B07A9
S1131BC071F48D919C911197840F951F02969183C6
S1131BD0808312968D919C91139793838283211510
S1131BE0310529F4F0936502E09364023EC0D90103
S1131BF01396FC93EE9312974D915D91A40FB51F2C
S1131C00EA17FB0779F480819181840F951F02966E
S1131C10D90111969C938E938281938113969C9300
S1131C208E931297E0E0F0E08A819B81009719F08F
S1131C30FE01EC01F9CFCE01029628813981820F91
S1131C40931F20916202309163022817390769F4C7
S1131C50309729F4109265021092640202C0138234
S1131C601282D0936302C0936202DF91CF910895F0
S1131C708F929F92AF92BF92CF92DF92EF92FF9298
S1131C80CF93DF93EC01688179818A819B8161150F
S1131C9071058105910521F464E279ED8BE597E006
S1131CA02DE133EF41E050E07FD349015A019B011C
S1131CB0AC01A7EAB1E494D36B017C01ACEEB4EFC0
S1131CC0A501940199D3C60ED71EE81EF91EF7FE8E
S1131CD006C081E0C81AD108E10880E8F80AC88281
S1131CE0D982EA82FB82C6019F77DF91CF91FF9070
S1131CF0EF90DF90CF90BF90AF909F908F9008951A
S1131D00B7CF86E091E0B4CFA0E0B0E080930601C5
S1131D1090930701A0930801B09309010895BB278C
S1131D204A3031F4992322F4BDE2909581959F4F76
S1131D3001C0BB27FB015527AA27880F991FAA1F9B
S1131D40A41710F0A41B83955051B9F7A05DAA33D2
S1131D5008F0A95DA193009779F7B111B19311929D
S1131D60CB0182C20F931F93CF93DF93EC018B01BE
S1131D70009731F46115710519F480E090E037C0E3
S1131D806EE070E081E090E038D2FC010097A9F3A6
S1131D9080E883830115110571F01387028781E8B8
S1131DA083838091660290916702892B21F4F093DA
S1131DB06702E09366022097C9F0D187C0878381C8
S1131DC0826083838091680290916902892B71F407
S1131DD0F0936902E093680280916A0290916B0229
S1131DE0892B21F4F0936B02E0936A02CF01DF9117
S1131DF0CF911F910F910895A0E0B0E0E1E0FFE0E2
S1131E000FC3FE01359661917191AF018091680213
S1131E10909169022FD0E2E01FC30F931F93CF93D9
S1131E20DF93E0916802F0916902238121FF1BC0D6
S1131E30EC0100E010E08991609168027091690200
S1131E40DB011896ED91FC911997882331F00995DF
S1131E50892B89F30FEF1FEFEECF8AE00995892BC9
S1131E6011F4C80102C08FEF9FEFDF91CF911F9152
S1131E700F910895ACE0B0E0EFE3FFE0C1C27C0154
S1131E806B018A01FC0117821682838181FFB0C134
S1131E90CE0101964C01F7019381F60193FD8591E2
S1131EA093FF81916F01882309F49EC1853239F42F
S1131EB093FD859193FF81916F01853221F4B701E0
S1131EC090E0E2D1E8CF512C312C20E02032A0F474
S1131ED08B3269F030F4803259F0833269F4206136
S1131EE02CC08D3239F0803339F4216026C0226051
S1131EF0246023C0286021C027FD27C030ED380F9F
S1131F003A3078F426FF06C0FAE05F9E300D1124C3
S1131F10532E13C08AE0389E300D1124332E2062D4
S1131F200CC08E3221F426FD5FC1206406C08C36BD
S1131F3011F4206802C0883641F4F60193FD8591BE
S1131F4093FF81916F018111C1CF982F9F7D95548B
S1131F50933028F40C5F1F4FFFE3F9830DC08336E1
S1131F6031F0833771F0833509F057C021C0F8018F
S1131F70808189830E5F1F4F44244394512C540164
S1131F8014C03801F2E06F0E711CF801A080B1801A
S1131F9026FF03C0652D70E002C06FEF7FEFC5011F
S1131FA02C8757D12C0183012C852F77222E16C024
S1131FB03801F2E06F0E711CF801A080B18026FF99
S1131FC003C0652D70E002C06FEF7FEFC5012C8761
S1131FD02ED12C012C852068222E830123FC19C0CC
S1131FE0832D90E048165906A0F4B70180E290E0F2
S1131FF04BD13A94F5CFF50127FC859127FE8191C9
S11320005F01B70190E040D131103A94F1E04F1AEA
S113201051084114510479F7DEC0843611F0893631
S113202031F5F80127FF07C06081718182819381B6
S11320300C5F1F4F08C060817181882777FD8095F0
S1132040982F0E5F1F4F2F76B22E97FF09C09095E1
S11320508095709561957F4F8F4F9F4F2068B22E6A
S11320602AE030E0A40142D1A82EA81843C0853745
S113207029F42F7EB22E2AE030E025C0F22FF97F1A
S1132080BF2E8F36C1F018F4883579F0ADC0803793
S113209019F0883721F0A8C02F2F2061B22EB4FE8A
S11320A00DC08B2D8460B82E09C024FF0AC09F2F59
S11320B09660B92E06C028E030E005C020E130E08B
S11320C002C020E132E0F801B7FE07C060817181EF
S11320D0828193810C5F1F4F06C06081718180E013
S11320E090E00E5F1F4FA40101D1A82EA818FB2D6C
S11320F0FF77BF2EB6FE0BC02B2D2E7FA51450F4F8
S1132100B4FE0AC0B2FC08C02B2D2E7E05C07A2C6A
S11321102B2D03C07A2C01C0752C24FF0DC0FE01A9
S1132120EA0DF11D8081803311F4297E09C022FF5C
S113213006C07394739404C0822F867809F0739454
S113214023FD12C020FF06C05A2C731418F4530C3C
S11321505718732C731460F4B70180E290E02C8755
S113216093D073942C85F6CF731410F4371801C0F0
S1132170312C24FF11C0B70180E390E02C8784D078
S11321802C8522FF16C021FF03C088E590E002C021
S113219088E790E0B7010CC0822F867851F021FDCA
S11321A002C080E201C08BE227FD8DE2B70190E01E
S11321B06BD0A51430F4B70180E390E065D05A9455
S11321C0F8CFAA94F401EA0DF11D8081B70190E0E3
S11321D05BD0A110F6CF332009F45DCEB70180E2C5
S11321E090E052D03A94F7CFF7018681978102C0EC
S11321F08FEF9FEF2C96E2E11FC10F931F93CF93B4
S1132200DF93869F8001879F100D969F100D1124E8
S1132210C80107DCEC01009721F0A80160E070E040
S113222011D0CE01DF91CF911F910F910895FC0140
S11322300590615070400110D8F7809590958E0FED
S11322409F1F0895DC0101C06D9341505040E0F799
S11322500895FC016150704001900110D8F78095F9
S113226090958E0F9F1F0895DC01FC01672F7191DB
S11322707723E1F7329704C07C916D937083629168
S1132280AE17BF07C8F308950F931F93CF93DF933F
S1132290182F092FEB018B8181FD03C08FEF9FEF76
S11322A020C082FF10C04E815F812C813D81421786
S11322B053077CF4E881F9819F012F5F3F4F3983F5
S11322C02883108306C0E885F985812F0995892B19
S11322D029F72E813F812F5F3F4F3F832E83812F2C
S11322E0902FDF91CF911F910F910895FA01AA27A2
S11322F0283051F1203181F1E8946F936E7F6E5F45
S11323007F4F8F4F9F4FAF4FB1E03ED0B4E03CD0F2
S1132310670F781F891F9A1FA11D680F791F8A1FD5
S1132320911DA11D6A0F711D811D911DA11D20D03C
S113233009F468943F912AE0269F11243019305DF6
S11323403193DEF6CF010895462F4770405D4193E7
S1132350B3E00FD0C9F7F6CF462F4F70405D4A3334
S113236018F0495D31FD4052419302D0A9F7EACFFC
S1132370B4E0A6959795879577956795BA95C9F72B
S113238000976105710508959B01AC010A2E06941E
S11323905795479537952795BA95C9F7620F731FD7
S11323A0841F951FA01D0895052E97FB16F4009415
S11323B00FD057FD05D05BD007FC02D046F408C00F
S11323C050954095309521953F4F4F4F5F4F08955D
S11323D090958095709561957F4F8F4F9F4F08958D
S11323E068D0A59F900DB49F900DA49F800D911D62
S11323F011240895B7FFF4CFF3DF821B930B0895E4
S11324002F923F924F925F926F927F928F929F9200
S1132410AF92BF92CF92DF92EF92FF920F931F93EE
S1132420CF93DF93CDB7DEB7CA1BDB0B0FB6F8949F
S1132430DEBF0FBECDBF09942A88398848885F84DF
S11324406E847D848C849B84AA84B984C884DF8050
S1132450EE80FD800C811B81AA81B981CE0FD11D34
S11324600FB6F894DEBF0FBECDBFED010895A1E213
S11324701A2EAA1BBB1BFD010DC0AA1FBB1FEE1FFA
S1132480FF1FA217B307E407F50720F0A21BB30B45
S1132490E40BF50B661F771F881F991F1A9469F7C1
S11324A060957095809590959B01AC01BD01CF011D
S11324B00895A29FB001B39FC001A39F700D811D19
S11324C01124911DB29F700D811D1124911D089539
S10724D0F894FFCFAA
S11324D400006C02200001000000044D435032351A
S11324E4313520696E204E4F5420696E20636F6E1F
S11324F466696775726174696F6E206D6F646520B7
S11325046166746572207265736574210048494775
S11325144853434F5245204C4953540020424143AD
S11325244B20415420494E495400627967676F6CCB
S1132534696E6900526967687420746F20737461EA
S113254472740047414D45204F56455200596F75EA
S1132554722073636F72653A00436F6E67726174BD
S1132564756C6174696F6E732100596F7572207391
S1132574636F72652072656163686564007468657D
S1132584206869676873636F7265206C6973742E5D
S11325940043757272656E742072616E6B3A0053F7
S11325A4656E64696E67206D657373616765200A7F
S11325B420004D61696E204D656E7500506C617923
S11325C42067616D65004869676873636F7265733A
S11325D40053657474696E67730053637265616D47
S11325E4204D6F6465004E6F726D616C204D6F6495
S11325F46500576972656C657373204D6F6465007B
S113260463757272656E74206C696E65203D202555
S1072614640A000050
S9030000FC
