:1000000025C100003FC100003DC1000055C10000F6
:1000100039C1000037C1000035C1000033C1000004
:1000200031C100002FC100002DC100002BC1000014
:1000300029C1000027C1000025C1000023C1000024
:1000400021C100001FC100001DC100000C94EC087C
:1000500019C1000017C1000015C1000013C1000044
:1000600011C100000FC100000DC100000BC1000054
:10007000000000000000005F0000000700070014FF
:100080007F147F14242A7F2A1223130864623649BE
:100090005522500005030000001C224100004122AF
:1000A0001C00082A1C2A0808083E080800503000D6
:1000B000000808080808006060000020100804021A
:1000C0003E5149453E00427F400042615149462130
:1000D00041454B311814127F1027454545393C4A9C
:1000E00049493001710905033649494936064949EC
:1000F000291E003636000000563600000008142283
:100100004114141414144122140800020151090668
:10011000324979413E7E1111117E7F494949363E6F
:10012000414141227F4141221C7F494949417F0988
:100130000901013E414151327F0808087F00417F9B
:1001400041002040413F017F081422417F40404050
:10015000407F0204027F7F0408107F3E4141413E00
:100160007F090909063E4151215E7F09192946464A
:100170004949493101017F01013F4040403F1F2073
:1001800040201F7F2018207F631408146303047825
:100190000403615149454300007F414102040810B6
:1001A0002041417F000004020102044040404040E1
:1001B000000102040020545454787F4844443838E5
:1001C00044444420384444487F3854545418087EEA
:1001D000090102081454543C7F0804047800447D4B
:1001E00040002040443D00007F10284400417F40F3
:1001F000007C041804787C080404783844444438AB
:100200007C14141408081414187C7C08040408488E
:1002100054545420043F4440203C4040207C1C2047
:1002200040201C3C4030403C44281028440C505096
:10023000503C4464544C44000836410000007F00A8
:100240000000413608000C1224120C0011241FBEBD
:10025000CFEFD4E0DEBFCDBF12E0A0E0B1E0E0E040
:10026000F0E202C005900D92A033B107D9F722E069
:10027000A0E3B2E001C01D92A535B207E1F7D3D7E4
:100280000C94FE0FBDCE85B7806885BF309880B7CF
:10029000806280BF86B78E7F86BF8BB780628BBF40
:1002A00078940895809300142899FECF81E080937C
:1002B0004A028091001408951F920F920FB60F9278
:1002C000112410924A020F900FBE0F901F901895A4
:1002D000B8D140E664E680E69BD140E060EE8FE076
:1002E00097D14FEF61E08BE293D14FEF60E680E66C
:1002F0008FC108951F93CF93DF93EC0180E355D115
:1003000083FD22C0888199819695879596958795DA
:100310009695879561E356D1888162E38295880F2F
:10032000807E50D165E38A814DD18A81882361F036
:1003300010E066E3610FFE01E10FF11D838142D100
:100340001F5F8A811817A8F381E84BD1DF91CF9105
:100350001F9108951F93CF93DF93EC018CE225D179
:1003600080FF2CC081E621D1182F82E61ED1482FB4
:10037000429546954770212F30E0C901880F991F9B
:10038000880F991F880F991F842B99279983888339
:1003900085E60BD18F708A83882361F010E086E6B2
:1003A000810F03D1FE01E10FF11D83831F5F8A815D
:1003B0001817A8F340E061E08CE22AD1DF91CF91D9
:1003C0001F910895CF92DF92EF92FF920F931F93A8
:1003D000CF93DF93CDB7DEB72B970FB6F894DEBF80
:1003E0000FBECDBFE982FA82C02E0B831C832D8302
:1003F0003E834F83588769877A878B871F920F9335
:100400008A818F9389818F938BE091E09F938F9363
:100410000E949D0C0F900F900F900F900F900F90D7
:100420000023B9F07E0184E0E80EF11CD12C0EE22D
:1004300011E0F70181917F011F928F931F930F931A
:100440000E949D0CD3940F900F900F900F90DC1092
:10045000F0CF8AE090E00E94AE0C2B960FB6F89495
:10046000DEBF0FBECDBFDF91CF911F910F91FF90E7
:10047000EF90DF90CF90089506DFB898B998BA98BA
:10048000C29A0895CF93DF9385E00CDF682F70E068
:1004900080E090E06ED72CE033E949E45FE3CDD70C
:1004A00035D7C0913102DD27C7FDD0956C0F7D1F78
:1004B000EB01C456D10984E0F5DE682F70E080E0DE
:1004C00090E057D72CE033E949E45FE3B6D71ED775
:1004D00020913002332727FD3095260F371FBE01AC
:1004E000C90184569109DF91CF9108958F929F920F
:1004F000AF92BF92CF92DF92EF92FF920F931F9332
:10050000CF93DF93BFDF6B017C01EB018701CB0150
:10051000B7010E94A80A882777FD8095982F29D7D0
:100520004B015C01C6014996C39720F4C701499667
:10053000C39728F11C161D0634F4C501B4010E94AE
:10054000CF0A0297F4F4DD2334F4C501B4010E940C
:10055000CF0A0297C4F4101611063CF4C501B40189
:100560000E94CF0A1816190684F411233CF4C50121
:10057000B4010E94CF0A181619064CF409C084E091
:1005800007C081E005C080E003C082E001C083E0D5
:10059000DF91CF911F910F91FF90EF90DF90CF905F
:1005A000BF90AF909F908F900895CF93C82FF3D5B1
:1005B00083E0E7D58C2FE5D5E8D5C82FEED58C2F75
:1005C000CF910895CF93DF93C82FD62FE4D582E043
:1005D000D8D58D2FD6D58C2FD4D5DFD5DF91CF911F
:1005E0000895CF93C82FD7D5C13039F018F0C23055
:1005F00039F009C081E8C5D508C082E8C2D505C078
:1006000084E8BFD502C087E8BCD5C7D5CF9108958F
:100610001F93CF93DF93182FD62FC42FBCD585E01F
:10062000B0D5812FAED58D2FACD58C2FAAD5B5D511
:10063000DF91CF911F910895AED580ECA2D5ADC5C5
:10064000089595D5F9DF89EF90E00197F1F700C0A3
:10065000000041E061E08BE2DBDF8EE0A6DF807E20
:10066000803831F082E391E00E94B30C81E008957C
:1006700080E00895BF92CF92DF92EF92FF920F93A6
:100680001F93CF93DF9382E04AD482E36CD48DE250
:10069000E0E0F2E190EC90838150E9F786E03FD40E
:1006A00082E361D48DE2E0E0F2E193E09083815057
:1006B000E9F713E0C0E0D2E10FEF812F30D482E3FD
:1006C00052D4088308831F5F1630B9F783E027D41C
:1006D0008FE549D4C0E0D2E113E0188306E0088337
:1006E0000F2EFCE0FF2EF02DF8820F2EF8E1EF2EFA
:1006F000F02DE8820F2EF0E3DF2EF02DD8820F2EA2
:10070000F0E6CF2EF02DC8820F2EF0ECBF2EF02D8C
:10071000B88280E8888384E002D486E624D481E825
:10072000888383EC888386E688838CE3888385E0EE
:10073000F6D38FE518D4B882C882D882E882F882CE
:100740000883188381E08883D1DE882319F10F2E76
:10075000F3E0DF2EF02D0FEF10E01AC08E2DDFD367
:100760000F2EF2E3FF2EF02D0E94450CB801F0D6BB
:100770008883FA94C9F7E39486E0E812EFCF8FE418
:1007800093EC0197F1F700C00000B0DE882311F070
:10079000ED2CE4CFDF91CF911F910F91FF90EF905F
:1007A000DF90CF90BF900895CF92DF92EF92FF92AB
:1007B0000F931F93CF93DF937C018B01EA01CC80D1
:1007C000D12CCC0CDD1C8D819E81C80ED91E8DE2F2
:1007D00090E0EBD6F60191838083EC81F0E0EE0FA0
:1007E000FF1F8D819E81E80FF91F0190F081E02DA0
:1007F000F182E082EC81F0E0EE0FFF1F8D819E819F
:10080000E80FF91F0190F081E02D1482EC81F0E0F7
:10081000EE0FFF1F8D819E81E80FF91F0190F0817F
:10082000E02D13830283EC81F0E0EE0FFF1F8D813A
:100830009E81E80FF91F0190F081E02DD087C783DA
:10084000EC81F0E0EE0FFF1F8D819E81E80FF91F14
:10085000008111818DE290E0A8D6F801968385830E
:10086000EC81EF5FEC83F0E0E150F048EE0FFF1F0A
:100870008D819E81E80FF91F80819181DF91CF9159
:100880001F910F91FF90EF90DF90CF900895EF921E
:100890000F931F93CF93DF93CDB7DEB729970FB692
:1008A000F894DEBF0FBECDBF09831A832B833C8330
:1008B0004D835E836F8378878987E885F9853097D4
:1008C00059F0E12C008111812281338144815581CD
:1008D0006681778180850CD029960FB6F894DEBFAB
:1008E0000FBECDBFDF91CF911F910F91EF90089573
:1008F000BF92CF92DF92EF92FF920F931F93CF930D
:10090000DF93CDB7DEB729970FB6F894DEBF0FBEE1
:10091000CDBF09831A832B833C83F42E4D835E83E2
:100920006F83788789870E811F818B819C81892BBA
:1009300099F0E885F98589E0A6E3B2E001900D928F
:100940008A95E1F709811A812B813C815E816F8153
:10095000788589859CDF26C0EDD289819A818CD3E8
:1009600081E0DDD2FF20F1F0CE2CD12CCC0CDD1CAF
:10097000C00ED11EB12CBE1007C0D601ED91FC9166
:1009800080819181B6D306C0D801ED91FC91808120
:1009900091813DD382E08B0DC2D2B3940E5F1F4F85
:1009A000BF10E9CF29960FB6F894DEBF0FBECDBFBA
:1009B000DF91CF911F910F91FF90EF90DF90CF903B
:1009C000BF900895EF920F931F93CF93DF93CDB70E
:1009D000DEB729970FB6F894DEBF0FBECDBF0983EF
:1009E0001A832B833C834D835E836F83788789874B
:1009F0000B811C812FE38DE093E0215080409040DB
:100A0000E1F700C000000115110591F4EE81FF81AE
:100A100080819181892B79F0E12C09811A812B81C8
:100A20003C814D815E816F817885898561DF03C05E
:100A300081D2F801099529960FB6F894DEBF0FBE52
:100A4000CDBFDF91CF911F910F91EF9008950F933C
:100A50001F93CF93DF93E2E3F2E090E044E352E0B0
:100A600003E312E09F01DF016081861768F0923096
:100A700050F4E8016881EA016883911104C0E9013A
:100A80006881E80168838C939F5F3196933059F7B2
:100A9000DF91CF911F910F91089590913202981795
:100AA00061F090913302981731F0909134029813CD
:100AB00006C082E0089581E0089580E0089580E016
:100AC0000895BF92CF92DF92EF92FF920F931F9300
:100AD000CF93DF93CDB7DEB766970FB6F894DEBF3E
:100AE0000FBECDBF84E690E09D878C8787E08E8720
:100AF0000F2EF6E7CF2EF1E0DF2EF02DBB24B394BE
:100B0000DF92CF921AD7CE01019624DC85E0CADBB2
:100B10008F8784E0C7DB888B86E0C4DB382F898B26
:100B200046B341704A8B56B352705B8B66B36470A8
:100B30006C8BBE8AEC84FD840E851F8528897D8997
:100B40008B2D40DC86E292E00ED7CE010C96D2DBF4
:100B50002FE382E49FE0215080409040E1F700C005
:100B60000000CE010196F6DB0F900F9029813A81AB
:100B70002A35310509F0C4CFDF84DCD186E991E064
:100B800046D22FE784E89EE1215080409040E1F773
:100B900000C000008D2D5BDF8D2D7FDF882381F06D
:100BA000C9D180EA91E033D28D2D77DFE6D12FEBEA
:100BB00087E299E0215080409040E1F700C00000BA
:100BC00066960FB6F894DEBF0FBECDBFDF91CF9112
:100BD0001F910F91FF90EF90DF90CF90BF900895FD
:100BE00086EE91E09093400280933F021092430280
:100BF0001092420210924102109247021092460255
:100C00008DE290E0D2D490934502809344024FE36A
:100C100052E060E070E080EF91E0C6DD4FE352E02B
:100C200060E070E08BEF91E0BFDD4FE352E061E602
:100C300075E084E092E0B8DD4FE352E06AE373E0F0
:100C40008EE092E0B1DD89E0EFE3F2E0A6E3B2E00E
:100C500001900D928A95E1F70895CF93DF93CDB778
:100C6000DEB729970FB6F894DEBF0FBECDBFE12CDB
:100C700000913F02109140022091410230914202C6
:100C800040914302509144026091450270914602A6
:100C9000809147022DDE0F2EF9E0FF2EF02D689493
:100CA000442442F80F2EFAE3CF2EF2E0DF2EF02D8F
:100CB0000F2EF3E05F2EF02D0F2EF5E18F2EF2E0D8
:100CC0009F2EF02D662463940F2EFDE3AF2EF2E0ED
:100CD000BF2EF02D6894772471F8CAC04423E1F048
:100CE00080910A018430C1F4EE24EA94E40EE0928B
:100CF000350200913602109137022091380230916E
:100D0000390240913A0250913B0260913C0270914D
:100D10003D0280913E02ECDD70920A0187EA91E685
:100D20000197F1F700C00000A3C0242F30E0D601E6
:100D30008C9190E00197281739072CF580910A01D2
:100D4000843009F54F5F409335021F924F939F9275
:100D50008F92F3D5E0903502009136021091370260
:100D6000209138023091390240913A0250913B0271
:100D700060913C0270913D0280913E02B9DD0F907E
:100D80000F900F900F9050920A01E7EAF1E6319729
:100D9000F1F700C000006CC080910A01843049F571
:100DA00009811A812B813C814D815E816F8178851B
:100DB000898508DEFE013196A6E3B2E08F2D019011
:100DC0000D928A95E1F710923502E12C00913602DE
:100DD00010913702209138023091390240913A0245
:100DE00050913B0260913C0270913D0280913E0225
:100DF0007FDD60920A0187EA91E60197F1F700C072
:100E0000000036C080910A01843009F50091360255
:100E100010913702209138023091390240913A0204
:100E200050913B0260913C0270913D0280913E02E4
:100E30002EDDD501ED91FC91309739F0A6E3B2E0BB
:100E40008F2D01900D928A95E1F710923502109244
:100E50000A01E7EAF1E63197F1F700C0000008C0A7
:100E600040920A0187EA91E60197F1F700C000007D
:100E700009DB3CDB40913502E42FF0E0EE0FFF1F71
:100E800020913B0230913C02E20FF31F0190F08170
:100E9000E02DDE0111969F2D01900D929A95E1F7BC
:100EA000823009F41BCF38F4882309F4ABCF8130AA
:100EB00009F472CFDDCF833009F437CF843081F26B
:100EC000D7CFE0E0F0E18EEA808381EA80838AED8B
:100ED000808382E1808388EC808388EA80838FE34B
:100EE000808385ED808380E8808381E8808380E54E
:100EF000808389ED808381E2808380E2808382E049
:100F000080838BED808380E380838DEA80831082F1
:100F100084EA808386EA80838FEA8083089590EB59
:100F2000980FE0E0F0E1908390E19083108280934D
:100F30004802089580EBA0E0B0E120E1E0E0F2E1BA
:100F400091E0980F8C932C931C9280E010828F5F1D
:100F50008038E1F7983B11F0892FF2CF10924802C8
:100F600080E0DDCF0895982F92959F70905FE0E02C
:100F7000F0E190838F7080830895E82FF0E0B097C0
:100F8000CF01880F991F880F991FE80FF91FE059AB
:100F9000FF4F80E090E0A0E0B2E124912C93019615
:100FA000319685309105C9F70895E82FF0E0E054B7
:100FB000F109CF01880F991F880F991FE80FF91FBA
:100FC000E059FF4F80E090E0A0E0B2E124912C9343
:100FD0000196319685309105C9F70895E82FF0E024
:100FE000B097CF01880F991F880F991FE80FF91F3D
:100FF000E059FF4F80E090E0A0E0B2E1249120951D
:101000002C930196319685309105C1F70895FF9292
:101010000F931F93CF93DF93EC01FC01019000200D
:10102000E9F73197E81BF90BCF01880F991F880F5B
:10103000991FE80FF91FF695E79580E48E1B93DF63
:1010400010E000E0F12C0CC01F5F0F5F96DF19313C
:1010500038F0809148028F5F8093480260DF1F2D37
:10106000FE01E00FF11D80818111EECFDF91CF9164
:101070001F910F91FF900895FF920F931F93CF93AD
:10108000DF93EC01FC0101900020E9F73197E81BA8
:10109000F90BCF01880F991F880F991FE80FF91FCF
:1010A000F695E79580E48E1B5EDF01E010E0F12C01
:1010B00012C01F5F9FE9980F9A3110F476DF01C0CC
:1010C0005CDF193138F0809148028F5F80934802CD
:1010D00026DF1F2D0F5F8FEF800FFE01E80FF11D40
:1010E00080818111E6CFDF91CF911F910F91FF9009
:1010F0000895FF920F931F93CF93DF93EC0180E04D
:10110000E0E0F2E19FEF90838F5F8038E1F7FE012E
:1011100001900020E9F73197EC1BFD0B9F01220F96
:10112000331F220F331FE20FF31F9F0136952795C0
:1011300080E4821B18DF10E000E0F12C0CC01F5F80
:101140000F5F4CDF193138F0809148028F5F809338
:101150004802E5DE1F2DFE01E00FF11D80818111A7
:10116000EECFDF91CF911F910F91FF900895BF9A1D
:10117000BD9ABC9ABE986D986C9A6E9A689A699856
:1011800008958FB9779BFECF089581E0FADF779BB2
:10119000FECF8FB10895C4980895C49A089585B775
:1011A000806885BF80B7806280BF089590BD89B98F
:1011B00088E18AB95998F894579A5F9A789481E0AF
:1011C00090E008955D9BFECF8CB983E090E0089598
:1011D0005F9BFECF8CB108951F920F920FB60F92B6
:1011E00011242F933F934F935F936F937F938F932C
:1011F0009F93AF93BF93EF93FF9381E08093490256
:101200008CB1E0DFFF91EF91BF91AF919F918F91F2
:101210007F916F915F914F913F912F910F900FBEF2
:101220000F901F901895CF93DF93CDB7DEB72B9714
:101230000FB6F894DEBF0FBECDBF8FEF9FE20197D0
:10124000F1F700C000008FEF8ABB8FE190E0AEDFC6
:1012500068EE78E082EE98E026D3A1DF39D80CD989
:101260009FEF2FE781E0915020408040E1F700C0E0
:1012700000C027DE5FDE80E052DE80E074DEB0DC9E
:10128000ECDC88E292E09F938F9357D30F900F90FE
:101290000F2EF4E6CF2ED12CF02D0F2EF7E0AF2E2F
:1012A000F02DBB24B394DA82C982AB8285E00E9420
:1012B00052018C8384E00E9452018D8386E00E945B
:1012C00052018E8346B341704F8356B35270588794
:1012D00066B364706987BA86E980FA800B811C81E5
:1012E0002D81382F7B2D8B856DD886E292E03BD304
:1012F000CE0101960E947A019FEF2FE781E0915085
:1013000020408040E1F700C000C0CDCF04D06894F9
:10131000B1118DC0089570D088F09F5790F0B92F0B
:101320009927B751A0F0D1F0660F771F881F991F3A
:101330001AF0BA95C9F712C0B13081F077D0B1E098
:10134000089574C0672F782F8827B85F39F0B93FA8
:10135000CCF3869577956795B395D9F73EF490953C
:101360008095709561957F4F8F4F9F4F0895E894BA
:1013700009C097FB3EF490958095709561957F4FDD
:101380008F4F9F4F9923A9F0F92F96E9BB2793958B
:10139000F695879577956795B795F111F8CFFAF49B
:1013A000BB0F11F460FF1BC06F5F7F4F8F4F9F4FCC
:1013B00016C0882311F096E911C0772321F09EE82A
:1013C000872F762F05C0662371F096E8862F70E090
:1013D00060E02AF09A95660F771F881FDAF7880F6A
:1013E0009695879597F9089557FD9058440F551F86
:1013F00059F05F3F71F04795880F97FB991F61F097
:101400009F3F79F087950895121613061406551F0D
:10141000F2CF4695F1DF08C0161617061806991F79
:10142000F1CF86957105610508940895E894BB276E
:1014300066277727CB0197F908950BD078C069D03C
:1014400028F06ED018F0952309F05AC05FC011241F
:10145000EECFCADFA0F3959FD1F3950F50E0551F53
:10146000629FF001729FBB27F00DB11D639FAA27F9
:10147000F00DB11DAA1F649F6627B00DA11D661F48
:10148000829F2227B00DA11D621F739FB00DA11D69
:10149000621F839FA00D611D221F749F3327A00D23
:1014A000611D231F849F600D211D822F762F6A2FBF
:1014B00011249F5750408AF0E1F088234AF0EE0F44
:1014C000FF1FBB1F661F771F881F91505040A9F751
:1014D0009E3F510570F014C0AACF5F3FECF3983ED9
:1014E000DCF3869577956795B795F795E7959F5FB8
:1014F000C1F7FE2B880F911D9695879597F9089552
:1015000097F99F6780E870E060E008959FEF80ECB6
:10151000089500240A941616170618060906089559
:1015200000240A9412161306140605060895092EBF
:101530000394000C11F4882352F0BB0F40F4BF2B2E
:1015400011F460FF04C06F5F7F4F8F4F9F4F08956E
:1015500097FB072E16F4009406D077FD08D00BD029
:1015600007FC05D03EF4909581959F4F08957095A6
:1015700061957F4F0895AA1BBB1B51E107C0AA1FAD
:10158000BB1FA617B70710F0A61BB70B881F991F24
:101590005A95A9F780959095BC01CD01089597FFC4
:1015A00003C09195819591090895CF93DF9382307F
:1015B000910510F482E090E0E0914D02F0914E022E
:1015C00020E030E0A0E0B0E0309739F14081518177
:1015D00048175907B8F04817590771F48281938169
:1015E000109729F013969C938E9312972CC090938A
:1015F0004E0280934D0227C02115310531F042176C
:10160000530718F0A901DB0101C0EF019A01BD01E8
:10161000DF010280F381E02DD7CF21153105F9F0EC
:10162000281B390B2430310580F48A819B81611598
:10163000710521F0FB019383828304C090934E02D5
:1016400080934D02FE01329644C0FE01E20FF31F6B
:101650008193919322503109398328833AC0209194
:101660004B0230914C02232B41F420910201309126
:10167000030130934C0220934B02209100013091E2
:1016800001012115310541F42DB73EB74091040108
:1016900050910501241B350BE0914B02F0914C0257
:1016A000E217F307A0F42E1B3F0B2817390778F039
:1016B000AC014E5F5F4F2417350748F04E0F5F1F98
:1016C00050934C0240934B028193919302C0E0E00F
:1016D000F0E0CF01DF91CF910895CF93DF93009792
:1016E00009F487C0FC01329713821282C0914D0227
:1016F000D0914E02209781F420813181280F391F2B
:1017000080914B0290914C028217930779F5F093E8
:101710004C02E0934B026DC0DE0120E030E0AE17DA
:10172000BF0750F412964D915C9113979D0141159E
:10173000510509F1DA01F3CFB383A28340815181CE
:10174000840F951F8A179B0771F48D919C911197B7
:10175000840F951F02969183808312968D919C91A0
:101760001397938382832115310529F4F0934E0258
:10177000E0934D023EC0D9011396FC93EE9312976D
:101780004D915D91A40FB51FEA17FB0779F4808195
:101790009181840F951F0296D90111969C938E9387
:1017A0008281938113969C938E931297E0E0F0E0F0
:1017B0008A819B81009719F0FE01EC01F9CFCE01DF
:1017C000029628813981820F931F20914B0230911C
:1017D0004C022817390769F4309729F410924E0209
:1017E00010924D0202C013821282D0934C02C09319
:1017F0004B02DF91CF9108958F929F92AF92BF924B
:10180000CF92DF92EF92FF92CF93DF93EC0168814A
:1018100079818A819B81611571058105910521F48A
:1018200064E279ED8BE597E02DE133EF41E050E0A4
:1018300051D349015A019B01AC01A7EAB1E466D337
:101840006B017C01ACEEB4EFA50194016BD3C60E25
:10185000D71EE81EF91EF7FE06C081E0C81AD1089F
:10186000E10880E8F80AC882D982EA82FB82C601D0
:101870009F77DF91CF91FF90EF90DF90CF90BF9057
:10188000AF909F908F900895B7CF86E091E0B4CF4E
:10189000A0E0B0E08093060190930701A0930801B7
:1018A000B093090108950F931F93CF93DF93EC0139
:1018B0008B01009731F46115710519F480E090E017
:1018C00037C06EE070E081E090E03DD2FC0100970F
:1018D000A9F380E883830115110571F0138702874E
:1018E00081E8838380914F0290915002892B21F4EB
:1018F000F0935002E0934F022097C9F0D187C08740
:101900008381826083838091510290915202892B5E
:1019100071F4F0935202E09351028091530290913E
:101920005402892B21F4F0935402E0935302CF0127
:10193000DF91CF911F910F910895A0E0B0E0E2EA0E
:10194000FCE004C3FE01359661917191AF01809175
:1019500051029091520234D0E2E014C360915102DE
:101960007091520227C20F931F93CF93DF93E091A0
:101970005102F0915202238121FF1BC0EC0100E0D3
:1019800010E089916091510270915202DB0118962A
:10199000ED91FC911997882331F00995892B89F3F2
:1019A0000FEF1FEFEECF8AE00995892B11F4C801E4
:1019B00002C08FEF9FEFDF91CF911F910F9108959C
:1019C000ACE0B0E0E5EEFCE0B1C27C016B018A0165
:1019D000FC0117821682838181FFB0C1CE0101967E
:1019E0004C01F7019381F60193FD859193FF81915D
:1019F0006F01882309F49EC1853239F493FD8591E6
:101A000093FF81916F01853221F4B70190E0D2D12B
:101A1000E8CF512C312C20E02032A0F48B3269F039
:101A200030F4803259F0833269F420612CC08D3259
:101A300039F0803339F4216026C02260246023C04D
:101A4000286021C027FD27C030ED380F3A3078F4E8
:101A500026FF06C0FAE05F9E300D1124532E13C0FE
:101A60008AE0389E300D1124332E20620CC08E3255
:101A700021F426FD5FC1206406C08C3611F4206875
:101A800002C0883641F4F60193FD859193FF819160
:101A90006F018111C1CF982F9F7D9554933028F409
:101AA0000C5F1F4FFFE3F9830DC0833631F083379E
:101AB00071F0833509F057C021C0F8018081898316
:101AC0000E5F1F4F44244394512C540114C038011D
:101AD000F2E06F0E711CF801A080B18026FF03C0F8
:101AE000652D70E002C06FEF7FEFC5012C8757D1E5
:101AF0002C0183012C852F77222E16C03801F2E0AD
:101B00006F0E711CF801A080B18026FF03C0652D07
:101B100070E002C06FEF7FEFC5012C872ED12C0142
:101B20002C852068222E830123FC19C0832D90E090
:101B300048165906A0F4B70180E290E03BD13A94F0
:101B4000F5CFF50127FC859127FE81915F01B70153
:101B500090E030D131103A94F1E04F1A510841141D
:101B6000510479F7DEC0843611F0893631F5F80179
:101B700027FF07C060817181828193810C5F1F4FB5
:101B800008C060817181882777FD8095982F0E5F4E
:101B90001F4F2F76B22E97FF09C0909580957095B4
:101BA00061957F4F8F4F9F4F2068B22E2AE030E023
:101BB000A40132D1A82EA81843C0853729F42F7E5E
:101BC000B22E2AE030E025C0F22FF97FBF2E8F36EB
:101BD000C1F018F4883579F0ADC0803719F0883736
:101BE00021F0A8C02F2F2061B22EB4FE0DC08B2D86
:101BF0008460B82E09C024FF0AC09F2F9660B92EBA
:101C000006C028E030E005C020E130E002C020E15D
:101C100032E0F801B7FE07C0608171818281938153
:101C20000C5F1F4F06C06081718180E090E00E5F05
:101C30001F4FA401F1D0A82EA818FB2DFF77BF2EAF
:101C4000B6FE0BC02B2D2E7FA51450F4B4FE0AC097
:101C5000B2FC08C02B2D2E7E05C07A2C2B2D03C084
:101C60007A2C01C0752C24FF0DC0FE01EA0DF11D78
:101C70008081803311F4297E09C022FF06C073944D
:101C8000739404C0822F867809F0739423FD12C0E8
:101C900020FF06C05A2C731418F4530C5718732CD9
:101CA000731460F4B70180E290E02C8783D07394C2
:101CB0002C85F6CF731410F4371801C0312C24FF93
:101CC00011C0B70180E390E02C8774D02C8522FFEF
:101CD00016C021FF03C088E590E002C088E790E0CD
:101CE000B7010CC0822F867851F021FD02C080E23E
:101CF00001C08BE227FD8DE2B70190E05BD0A51417
:101D000030F4B70180E390E055D05A94F8CFAA940C
:101D1000F401EA0DF11D8081B70190E04BD0A110D4
:101D2000F6CF332009F45DCEB70180E290E042D0D7
:101D30003A94F7CFF7018681978102C08FEF9FEF2A
:101D40002C96E2E10FC10F931F93CF93DF93869FF1
:101D50008001879F100D969F100D1124C80125DC6E
:101D6000EC01009721F0A80160E070E011D0CE01F5
:101D7000DF91CF911F910F910895FC010590615063
:101D800070400110D8F7809590958E0F9F1F089591
:101D9000DC0101C06D9341505040E0F70895FC0113
:101DA0006150704001900110D8F7809590958E0F8A
:101DB0009F1F08950F931F93CF93DF93182F092F21
:101DC000EB018B8181FD03C08FEF9FEF20C082FF6D
:101DD00010C04E815F812C813D81421753077CF4F6
:101DE000E881F9819F012F5F3F4F3983288310835A
:101DF00006C0E885F985812F0995892B29F72E8161
:101E00003F812F5F3F4F3F832E83812F902FDF91A4
:101E1000CF911F910F910895FA01AA27283051F10F
:101E2000203181F1E8946F936E7F6E5F7F4F8F4F0B
:101E30009F4FAF4FB1E03ED0B4E03CD0670F781F6A
:101E4000891F9A1FA11D680F791F8A1F911DA11D4F
:101E50006A0F711D811D911DA11D20D009F4689488
:101E60003F912AE0269F11243019305D3193DEF630
:101E7000CF010895462F4770405D4193B3E00FD0E6
:101E8000C9F7F6CF462F4F70405D4A3318F0495DD1
:101E900031FD4052419302D0A9F7EACFB4E0A695B4
:101EA0009795879577956795BA95C9F700976105D6
:101EB000710508959B01AC010A2E0694579547952C
:101EC00037952795BA95C9F7620F731F841F951F21
:101ED000A01D0895052E97FB16F400940FD057FD12
:101EE00005D05BD007FC02D046F408C05095409561
:101EF000309521953F4F4F4F5F4F089590958095B6
:101F0000709561957F4F8F4F9F4F089568D0A59F23
:101F1000900DB49F900DA49F800D911D11240895E4
:101F2000B7FFF4CFF3DF821B930B08952F923F92FC
:101F30004F925F926F927F928F929F92AF92BF92D9
:101F4000CF92DF92EF92FF920F931F93CF93DF9385
:101F5000CDB7DEB7CA1BDB0B0FB6F894DEBF0FBEE2
:101F6000CDBF09942A88398848885F846E847D842F
:101F70008C849B84AA84B984C884DF80EE80FD8031
:101F80000C811B81AA81B981CE0FD11D0FB6F894A7
:101F9000DEBF0FBECDBFED010895A1E21A2EAA1B30
:101FA000BB1BFD010DC0AA1FBB1FEE1FFF1FA21709
:101FB000B307E407F50720F0A21BB30BE40BF50B06
:101FC000661F771F881F991F1A9469F7609570958F
:101FD000809590959B01AC01BD01CF010895A29F12
:101FE000B001B39FC001A39F700D811D1124911DED
:101FF000B29F700D811D1124911D0895F894FFCF9B
:1020000000005502200001000000044D45535341DB
:1020100047453A200A49443A2025640A4C656E67D0
:1020200074683A2025640A446174613A200025648A
:1020300020004D43503235313520696E204E4F54CB
:1020400020696E20636F6E66696775726174696F6F
:102050006E206D6F646520616674657220726573B1
:10206000657421004849474853434F5245204C4925
:102070005354002E20002D2D2D2D20496E204D452E
:102080004E555F706C61795F67616D65202D2D2DF8
:102090002D200A0A200047414D45204F5645520049
:1020A000436F6E67726174756C6174696F6E7321D2
:1020B00020596F75722074696D652072656163685F
:1020C000656420746865206869676873636F72650A
:1020D000206C6973742E2043757272656E74207261
:1020E000616E6B3A20004D61696E204D656E750022
:1020F0004869676873636F726573005365747469C8
:102100006E677300506C61792067616D6500526F76
:10211000636B65740063757272656E74206C696EB2
:1021200065203D2025640A006865696969690000C9
:00000001FF
